S0160000436F6E74726F6C2D6D6F64756C652E737265637A
S113000045C0000053C0000051C000004FC00000B4
S11300104DC000004BC0000049C0000047C00000B4
S113002045C0000043C0000041C000003FC00000C4
S11300303DC000003BC0000039C0000037C00000D4
S113004035C0000033C0000031C0000098C000007B
S11300502DC000002BC0000029C0000027C00000F4
S113006025C0000023C0000021C000001FC0000004
S11300701DC000001BC0000019C0000017C0000014
S113008015C0000013C0000011C0000011241FBEE1
S1130090CFEFD0E4DEBFCDBF21E0A0E0B1E001C0EE
S11300A01D92A731B207E1F702D034C1A9CF49D0DC
S11300B02DD02BD0FECFCF93DF9300D000D01F9252
S11300C0CDB7DEB719821A821B821C8286E08D832B
S11300D00BC08A819D81891B895F8A838B818F5F95
S11300E08B838D8181508D838D81809102012D813F
S11300F090E002C0959587952A95E2F7817099273B
S113010089838981813029F3ECCFD5DF81EF809316
S1130110800082E080938100EFE6F0E080818660D9
S113012080831092850010928400109289001092AE
S1130130880010928B0010928A008AB1806F8AB96D
S113014008958FEF8AB988E484B983EC8CBD7894E0
S113015081E08093120110920F018093140182E0D8
S11301608093150183E08093010184E0809316015C
S113017010920D0108958EBD2B9A2B9808951F920D
S11301800F920FB60F9211240BB60F922F933F9339
S11301904F935F936F937F938F939F93AF93BF938B
S11301A0EF93FF93CF93DF931F92CDB7DEB78EB556
S11301B0898380911201882309F447C08981843896
S11301C059F49091120181E0892780931201809162
S11301D0140180930F0188C08981853859F4909166
S11301E0120181E08927809312018091010180939B
S11301F00F017AC08981863859F49091120181E007
S11302008927809312018091150180930F016CC09E
S113021089818B3A59F49091120181E08927809366
S113022012018091160180930F015EC0898185308F
S113023021F480910E019FDF57C08981863009F037
S113024053C08091000197DF4FC090910F018091BE
S1130250140198130AC089818093020190911201BC
S113026081E08927809312013FC090910F01809112
S1130270150198130AC0898180930001909112019D
S113028081E08927809312012FC090910F01809102
S1130290010198130AC0898180930E019091120183
S11302A081E08927809312011FC090910F018091F2
S11302B01601981319C0E0910D01F0E08981ED5FFA
S11302C0FE4F808380910D01893049F49091120191
S11302D081E089278093120110920D0105C080915D
S11302E00D018F5F80930D010F90DF91CF91FF91EE
S11302F0EF91BF91AF919F918F917F916F915F919A
S11303004F913F912F910F900BBE0F900FBE0F9006
S10B03101F901895F894FFCF2B
S9030000FC
