:1000000045C0000053C0000051C000004FC00000B8
:100010004DC000004BC0000049C0000047C00000B8
:1000200045C0000043C0000041C000003FC00000C8
:100030003DC000003BC0000039C0000037C00000D8
:1000400035C0000033C0000031C0000030C00000E7
:100050002DC000002BC0000029C0000027C00000F8
:1000600025C0000023C0000021C000001FC0000008
:100070001DC000001BC0000019C0000017C0000018
:1000800015C0000013C0000011C0000011241FBEE5
:10009000CFEFD0E4DEBFCDBF21E0A0E0B1E001C0F2
:1000A0001D92A931B207E1F738D013C1A9CF1F9231
:1000B0000F920FB60F9211240BB60F922F933F930E
:1000C0004F935F936F937F938F939F93AF93BF9360
:1000D000EF93FF938EB580931601809116018438BB
:1000E00041F080911601843821F0809116018093AF
:1000F0000101C1D0FF91EF91BF91AF919F918F917D
:100100007F916F915F914F913F912F910F900BBE17
:100110000F900FBE0F901F901895D5D07ED0FFCFB7
:10012000CF93DF9300D01F92CDB7DEB719821A822A
:100130001B82109218014091010186E090E050E08E
:100140009A01082E02C0359527950A94E2F721708E
:10015000332729832981213039F42A81295F281BFB
:100160002A832B812F5F2B83019750F78B8181305E
:1001700039F49A818A81890F81508093180122C0B5
:100180008B81823029F48A818150809318011AC0B2
:100190008B818330A1F48A81880F8093180180912C
:1001A000180196E58902912D112487FD939590936E
:1001B00018018091180181508093180103C087E0D5
:1001C000809318019091180187E0891B8093180192
:1001D000809118010F900F900F90DF91CF910895AB
:1001E000CF93DF931F92CDB7DEB71982909115019F
:1001F000282F291B922F990F990F292F220F220F99
:10020000920F282F220F280F920F998380931501A8
:1002100089810F90DF91CF91089581EF80938000C5
:1002200082E080938100109285001092840088EF14
:1002300090E0909389008093880090938B00809346
:100240008A008AB1806F8AB90895019719F48BB139
:100250008BB901C05F9A6130710511F45E9A02C0DA
:100260008BB18BB9309389002093880050938B0019
:1002700040938A000895CF9353DFC82FB1DF28EC55
:1002800030E0281B310987FD33953093130120930B
:1002900012018C2FA5DF992787FD909588539F4FDA
:1002A000909311018093100120911201309113015C
:1002B000409110015091110161E070E081E090E007
:1002C000C4DFCF91089588E484B983EC8CBD789421
:0602D0000895F894FFCF31
:00000001FF
