S0160000436F6E74726F6C2D6D6F64756C652E737265637A
S113000045C0000053C0000051C000004FC00000B4
S11300104DC000004BC0000049C0000047C00000B4
S113002045C0000043C0000041C000003FC00000C4
S11300303DC000003BC0000039C0000037C00000D4
S113004035C0000033C0000031C0000030C00000E3
S11300502DC000002BC0000029C0000027C00000F4
S113006025C0000023C0000021C000001FC0000004
S11300701DC000001BC0000019C0000017C0000014
S113008015C0000013C0000011C0000011241FBEE1
S1130090CFEFD0E4DEBFCDBF21E0A0E0B1E001C0EE
S11300A01D92AB31B207E1F79CD049C5A9CF1F928D
S11300B00F920FB60F9211240BB60F922F933F930A
S11300C04F935F936F937F938F939F93AF93BF935C
S11300D0EF93FF938EB580930C01809114018130CE
S11300E099F51092140180910C01843821F482E076
S11300F08093040163C080910C01853821F483E06E
S1130100809304015BC080910C01863821F481E066
S11301108093040153C080910C01873821F484E05A
S1130120809304014BC080910C018B3821F485E04D
S11301308093040143C080910C018F3809F03EC0C4
S113014086E0809304013AC081E080931401809199
S11301500401823031F480910C018093090106D1AD
S11301602DC080910401813041F480910C01809371
S11301700801809108017ED321C08091040183305D
S113018031F480910C0180930A01A2D117C08091AF
S11301900401843021F480910C01E3D10FC08091DB
S11301A00401853021F480910C01DED107C08091D7
S11301B00401863019F480910C0107D3FF91EF916B
S11301C0BF91AF919F918F917F916F915F914F916B
S11301D03F912F910F900BBE0F900FBE0F901F9069
S11301E018959ED491D0A4D2FFCFCF93DF9300D0A3
S11301F01F92CDB7DEB719821A821B8210921001AA
S11302004091090186E090E050E09A01082E02C076
S1130210359527950A94E2F721703327298329819C
S1130220213039F42A81295F281B2A832B812F5FEF
S11302302B83019750F78B81813039F49A818A811D
S1130240890F81508093100122C08B81823029F460
S11302508A818150809310011AC08B818330A1F46C
S11302608A81880F809310018091100196E589029C
S1130270912D112487FD9395909310018091100185
S113028081508093100103C088EF809310019091F6
S1130290100187E0891B80931001809110010F9059
S11302A00F900F90DF91CF9108951F93CF93DF9319
S11302B000D0CDB7DEB71A821982282F332727FD45
S11302C03095409112014203B001439F700D1124F7
S11302D010910D0190910701291B310997FD339568
S11302E01203A001139F500D11249B01240F351FED
S11302F03A8329838093070189819A810F900F9013
S1130300DF91CF911F91089581EF8093800083E066
S11303108093810010928500109284008FEF90E00A
S1130320909389008093880090938B0080938A0037
S11303308AB1806F8AB984E18093120185E0809349
S11303400D010895019711F45F9801C05F9A61301F
S1130350710511F45E9A01C05E9830938900209370
S1130360880050938B0040938A0008953EDF809369
S11303701001809110018F3099F4809103018093D2
S113038003018091000180930001209103014091B9
S1130390000130E050E061E070E081E090E0D2CF15
S11303A080E580931101809110017FDF282F33278E
S11303B027FD309590911101492F50E0421B530BBA
S11303C04A3051053CF493E09093030191E09093FB
S11303D013010FC04C3E510534F094E69093030191
S11303E01092130106C0981B9093030191E090931F
S11303F0130190911101290F311D2A3031053CF46C
S113040088E28093000181E080930B010FC02C3EB1
S1130410310534F080E58093000110920B0106C091
S1130420890F8093000181E080930B0120910301E7
S11304304091000160910B018091130130E050E084
S113044070E090E07FCF282F30E0482F50E061E04B
S113045070E081E090E076CF282F30E0482F50E024
S113046060E070E080E090E06DCF2FEF30E04FEF80
S113047050E061E070E081E090E064CF482F50E00C
S11304809A01285D3F4F4852510961E070E081E0D4
S113049090E058CF482F50E09A0128523109485D26
S11304A05F4F61E070E081E090E04CCF24E630E003
S11304B044E650E060E070E081E090E043CF24E661
S11304C030E044E650E061E070E080E090E03ACF54
S11304D080910A0183FF1DC080910A018C3011F4C0
S11304E080E5BACF80910A018B3011F480E5D2CF38
S11304F080910A018A3011F480E5C0CF80910A010D
S1130500893011F480E59FCF80910A01883041F54C
S1130510ACCF80910A01843011F488EC9DCF809196
S11305200A01833011F488ECB5CF80910A0182303E
S113053011F488ECA3CF80910A01813011F488EC86
S113054082CF80910A01811101C08FCF80910A016D
S1130550853009F4B4CF80910A01863009F4A6CF1E
S1130560089580931201089580930D0108955B9A74
S1130570E0ECF0E0908195FFFDCF8093C6000895F4
S1130580FF920F931F93CF93DF9300D0CDB7DEB7C5
S1130590F62E042F122F89839A838FEFE8DF8FEFD3
S11305A0E6DF812FE4DF87E0E2DF83E0E0DF8EE156
S11305B0DEDF8981DCDF8A81DADF8F2DD8DF802FCF
S11305C0D6DF99818A81890F885DF80E0F0D802FFF
S11305D0810F8095CCDF0F900F90DF91CF911F9109
S11305E00F91FF900895EF92FF920F931F93CF9373
S11305F0DF9300D000D000D0CDB7DEB7F62E142F95
S1130600E22EAFEFB3E0A81BB90BBA83A9838B83A7
S11306109C83E981FA81ED83E981FA81FE838FEF7E
S1130620A6DF8FEFA4DF8EEFA2DF8EE0A0DF83E8EA
S11306309EDF8EE19CDF84E09ADF8E2D98DF8B8134
S113064096DF8C8194DF8F2D92DF812F90DF802FB6
S11306508EDF8D818CDF8E818ADF8F2D88DF812F65
S113066086DF3B818C812D819E81830F8F54820F85
S1130670890F8F0DF80EF10E1F0DE10E8E2D800FD8
S1130680809575DF26960FB6F894DEBF0FBECDBFFA
S1130690DF91CF911F910F91FF90EF9008950F93E9
S11306A01F9327E041E060E58FEF91E069DF26E0EA
S11306B041E060E582E393E063DF03E010E022E0E1
S11306C040E060E58FEF91E08EDF05E010E024E08C
S11306D040E060E58CEC90E086DF03E010E022E08F
S11306E040E060E58CEC90E07EDF21E040E060E2F9
S11306F08FEF91E045DF8FEF91E0909306018093B7
S113070005012CEC30E03093020120930101309379
S11307100F0120930E0122E333E03093180120935C
S1130720170190931601809315011F910F9108955D
S1130730539A1092C5001092C40088E18093C100BE
S113074086E08093C200ABCF0F931F9303E010E0C9
S113075022E040E060EF88E892E045DF05E010E049
S113076024E040E060EF88E892E03DDF26E040E0EE
S113077060EF8DEC90E004DF27E041E060E58FEF6F
S113078091E0FEDE28E040E060E58FEF91E0F8DEE6
S113079088E892E0909302018093010190930F0105
S11307A080930E018FEF91E09093180180931701CD
S11307B090931601809315018DEC90E090931A01AB
S11307C0809319011F910F9108950F931F93811125
S11307D007C021E040E060E582E393E0D1DE08C099
S11307E0813031F421E040E060E58CEC90E0C8DE3B
S11307F02FEF8BE792E9215080409040E1F700C051
S1130800000003E010E022E040E060E68CEC92E0BF
S1130810EADE05E010E024E040E060E68CEC92E0E3
S1130820E2DE26E040E060E681E191E0A9DE27E037
S113083041E060E58FEF91E0A3DE2FEF8FE493ECCE
S1130840215080409040E1F700C0000028E040E0E3
S113085060E68FEF91E094DE2FEF8BE792E9215071
S113086080409040E1F700C0000019DF66D11F917D
S11308700F9108950F931F9386FB992790F985FF95
S113088002C062DF4AC1992311F009DF46C1982FE3
S1130890977084FB332730F983FB222720F99130AA
S11308A091F5311118C038ED3203C00111242091A3
S11308B0050130910601820F931F8A30910509F4D6
S11308C02CC10A97909306018093050121E040E032
S11308D060E556DE22C180910501909106010A96D9
S11308E048E2249F800D911D11248F3F23E092073D
S11308F008F013C1909306018093050121E040E0C4
S113090060E53EDE0AC19230B1F531111AC0809122
S11309100101909102010A9748ED420390011124CC
S1130920820F931F8E3C910508F4F7C09093020147
S11309308093010103E010E022E040E060E553DE33
S1130940ECC080910101909102010A9638E2239F44
S1130950800D911D1124823243E0940708F0DDC01C
S1130960909302018093010103E010E022E040E053
S113097060E539DED2C09330B1F531111AC08091EF
S11309800E0190910F010A9748ED42039001112442
S1130990820F931F8E3C910508F4BFC090930F0102
S11309A080930E0105E010E024E040E060E51BDEEA
S11309B0B4C080910E0190910F010A9638E2239FF2
S11309C0800D911D1124823243E0940708F0A5C0E4
S11309D090930F0180930E0105E010E024E040E0C5
S11309E060E501DE9AC0943091F5311118C038EDFC
S11309F03203C00111244091170150911801840F52
S1130A00951F8A30910509F488C00A9790931801BC
S1130A108093170126E040E060E5B2DD7EC080915E
S1130A201701909118010A9648E2249F800D911DA8
S1130A301124823323E0920708F06FC090931801C9
S1130A408093170126E040E060E59ADD66C09530AA
S1130A5099F5311118C038ED3203C00111244091C9
S1130A60150150911601840F951F8A30910509F4E0
S1130A7054C00A97909316018093150127E040E033
S1130A8060E57EDD4AC04091150150911601465F34
S1130A905F4FCA0138E2239F800D911D11248F3FBF
S1130AA043E09407D0F5909316018093150127E055
S1130AB040E060E565DD31C0963079F5311117C04D
S1130AC038ED3203C00111244091190150911A01EB
S1130AD0840F951F8A30910501F10A9790931A01AA
S1130AE08093190128E040E060E54ADD16C080915A
S1130AF0190190911A010A9648E2249F800D911DD4
S1130B0011248F3F23E0920740F490931A018093BD
S1130B10190128E040E060E533DD1F910F9108954D
S1130B2081E08093140188E484B983EC8CBD7894CB
S1130B3008958EBD2B9A2B98089581E0FACFF894EE
S1050B40FFCFE1
S9030000FC
