S015000077617265686F7573654D6F64652E73726563B7
S113000045C0000060C000005EC000005CC000008D
S11300105AC0000058C0000056C0000054C0000080
S113002052C0000050C000004EC000004CC0000090
S11300304AC0000048C0000046C0000044C00000A0
S113004042C0000040C000003EC000003CC00000B0
S1130050FCC3000038C0000036C0000034C00000FB
S113006032C0000030C000002EC000002CC00000D0
S11300702AC0000028C0000026C0000024C00000E0
S113008022C0000020C000001EC0000011241FBEBA
S1130090CFEFD0E4DEBFCDBF11E0A0E0B1E0EAE5F0
S11300A0FBE000E00BBF02C007900D92AC33B10738
S11300B0D9F721E0ACE3B1E001C01D92A536B20747
S11300C0E1F746D548C59CCF0F931F93CF93DF9399
S11300D0FC019081A385B48561110EC03C9161E05F
S11300E070E0EB0102C0CC0FDD1F9A95E2F7CE0160
S11300F0809583238C930CC03C9161E070E0EB010C
S113010002C0CC0FDD1F9A95E2F7CE01832B8C93AE
S11301109181A585B68541110EC03C9141E050E026
S1130120BA0102C0660F771F9A95E2F7CB0180955A
S113013083238C930CC03C9141E050E0EA0102C05F
S1130140CC0FDD1F9A95E2F7CE01832B8C9393811C
S1130150A189B289222374F03C9141E050E0BA01B4
S113016002C0660F771F9A95E2F7CB01809583232F
S11301708C930CC03C9141E050E0EA0102C0CC0FEA
S1130180DD1F9A95E2F7CE01832B8C939481A3898A
S1130190B48926FD0EC03C9141E050E0BA0102C092
S11301A0660F771F9A95E2F7CB01809583238C9392
S11301B00CC03C9141E050E0EA0102C0CC0FDD1FCD
S11301C09A95E2F7CE01832B8C939581A589B68904
S11301D025FD0EC03C9141E050E0BA0102C0660F1B
S11301E0771F9A95E2F7CB01809583238C930CC0FB
S11301F03C9141E050E0EA0102C0CC0FDD1F9A952A
S1130200E2F7CE01832B8C939681A789B08D24FDD0
S11302100EC03C9141E050E0BA0102C0660F771F66
S11302209A95E2F7CB01809583238C930CC03C9183
S113023041E050E0EA0102C0CC0FDD1F9A95E2F7DD
S1130240CE01832B8C9383A181111FC000C0A7858D
S1130250B0893C9181E090E0AC01028002C0440F7F
S1130260551F0A94E2F7432B4C9300C000C0A785A6
S1130270B0893C91028002C0880F991F0A94E2F76A
S1130280809583238C9300C000C083A1813009F042
S11302907DC09781A18DB28D23FD0EC03C9141E0BC
S11302A050E0BA0102C0660F771F9A95E2F7CB01BE
S11302B0809583238C930CC03C9141E050E0EA018B
S11302C002C0CC0FDD1F9A95E2F7CE01832B8C93ED
S11302D09085A38DB48D22FD0EC03C9141E050E089
S11302E0BA0102C0660F771F9A95E2F7CB01809599
S11302F083238C930CC03C9141E050E0EA0102C09E
S1130300CC0FDD1F9A95E2F7CE01832B8C93918558
S1130310A58DB68D21FD0EC03C9141E050E0BA019F
S113032002C0660F771F9A95E2F7CB01809583236D
S11303308C930CC03C9141E050E0EA0102C0CC0F28
S1130340DD1F9A95E2F7CE01832B8C939285A78DBE
S1130350B0A120FD0EC04C9121E030E0B90102C0F3
S1130360660F771F9A95E2F7CB01809584238C93CF
S113037089C04C9121E030E0E90102C0CC0FDD1FBF
S11303809A95E2F7CE01842B8C937CC09381A1894A
S1130390B28923FD0EC03C9141E050E0BA0102C095
S11303A0660F771F9A95E2F7CB01809583238C9390
S11303B00CC03C9141E050E0EA0102C0CC0FDD1FCB
S11303C09A95E2F7CE01832B8C939481A389B48907
S11303D022FD0EC03C9141E050E0BA0102C0660F1C
S11303E0771F9A95E2F7CB01809583238C930CC0F9
S11303F03C9141E050E0EA0102C0CC0FDD1F9A9528
S1130400E2F7CE01832B8C939581A589B68921FDD2
S11304100EC03C9141E050E0BA0102C0660F771F64
S11304209A95E2F7CB01809583238C930CC03C9181
S113043041E050E0EA0102C0CC0FDD1F9A95E2F7DB
S1130440CE01832B8C939681A789B08D20FD0EC09D
S11304504C9121E030E0B90102C0660F771F9A95F4
S1130460E2F7CB01809584238C930CC04C9121E05E
S113047030E0E90102C0CC0FDD1F9A95E2F7CE010E
S1130480842B8C9300C0A785B0894C9181E090E0C7
S11304909C01028002C0220F331F0A94E2F7242B2E
S11304A02C9300C000C0A785B0892C91028002C0A3
S11304B0880F991F0A94E2F7809582238C9300C0D9
S11304C000C00115110549F080E090E0D5E0DA950F
S11304D0F1F7019680179107C9F7DF91CF911F912A
S11304E00F9108950F931F9308E616E021E040E072
S11304F060E0EADD1F910F9108950F931F93E62F9B
S1130500F0E0BF01660F771F6460242F262B08E2FA
S113051010E040E060E0D8DD1F910F9108950F9343
S11305201F93E62FF0E0BF01660F771F660F771F5A
S11305306860440F642B262B08E210E040E060E082
S1130540C3DD1F910F9108950F931F93440F440F20
S1130550440F30E1639FB00111246062642B220FC9
S1130560220F262B08E210E040E060E0ADDD1F9191
S11305700F9108950F931F93262F0DE210E040E092
S113058061E0A2DD1F910F9108950F931F93CF9304
S1130590DF93EC01122F8FEF97ED0197F1F700C075
S11305A00000EB85FC85508181E090E09C0108808F
S11305B002C0220F331F0A94E2F7209525232083DB
S11305C0ED85FE8550819C01098002C0220F331FF6
S11305D00A94E2F7209525232083EF85F88950813A
S11305E09C010A8002C0220F331F0A94E2F720956F
S11305F025232083E989FA8950819C010B8002C05C
S1130600220F331F0A94E2F7209525232083EB89D8
S1130610FC8950819C010C8002C0220F331F0A9474
S1130620E2F7209525232083ED89FE8950819C01E2
S11306300D8002C0220F331F0A94E2F72095252370
S11306402083EF89F88D20810E8002C0880F991FC6
S11306500A94E2F78095822380838BA18130A9F5E7
S1130660E98DFA8D508181E090E09C010F8002C0F9
S1130670220F331F0A94E2F7209525232083EB8D64
S1130680FC8D50819C01088402C0220F331F0A9400
S1130690E2F7209525232083ED8DFE8D50819C016A
S11306A0098402C0220F331F0A94E2F72095252300
S11306B02083EF8DF8A120810A8402C0880F991F3E
S11306C00A94E2F7809582238083ED89FE89508124
S11306D081E090E09C010D8002C0220F331F0A9438
S11306E0E2F7252B2083EF89F88D50819C010E8041
S11306F002C0220F331F0A94E2F7252B208300C087
S1130700EF85F88950819C010A8002C0220F331FB3
S11307100A94E2F7252B208300C000C0EF85F889F6
S113072050819C010A8002C0220F331F0A94E2F711
S113073020952523208300C000C0EAE0FBE3319725
S1130740F1F700C0EF85F88950819C010A8002C04E
S1130750220F331F0A94E2F7252B208300C000C028
S1130760EF85F88950819C010A8002C0220F331F53
S11307700A94E2F720952523208300C000C0E0E717
S1130780F1E03197F1F700C000C0EF85F88950819E
S11307909C010A8002C0220F331F0A94E2F7252B22
S11307A0208300C000C0EF85F88920810A8002C040
S11307B0880F991F0A94E2F780958223808300C0F2
S11307C000C08BA181112CC0EF89F88D508181E08C
S11307D090E09C010E8002C0220F331F0A94E2F7BE
S11307E020952523208300C0EF85F88950819C0142
S11307F00A8002C0220F331F0A94E2F7252B2083BC
S113080000C000C0EF85F88920810A8002C0880FEB
S1130810991F0A94E2F780958223808300C000C068
S1130820242F462F6BA1CE018FDE20E040E060E054
S1130830CE0175DECE0156DE402F612FCE015DDE86
S1130840DF91CF911F910F9108951F920F920FB6D0
S11308500F9211240BB60F928F939F93EF93FF93F4
S113086080913D019091C600E82FF0E0E05DFE4FDD
S113087090838F5F8C3019F080933D0105C01092F6
S11308803D0181E080934001FF91EF919F918F9111
S11308900F900BBE0F900FBE0F901F9018951F93D3
S11308A0CF93DF93D0913C01D11112C080E026C0D8
S11308B071916D91761301C0CF5FCC30F1F0E817E0
S11308C0F907B1F72F5F3F4F2D1748F080E016C0AE
S11308D020E030E040E351E08CE391E010E0FA01E5
S11308E0D901AA0FBB1FA20FB31FAA0FBB1FAA0FC8
S11308F0BB1FA050BF4FC12FDBCF81E0DF91CF9151
S11309001F910895909124018091300198130FC094
S1130910E5E2F1E0A1E3B1E080E391E031912D91D2
S1130920321307C0E817F907C9F781E0089580E09A
S1130930089580E008950F931F93CF93DF93C82FFA
S113094081E491E0CFDDCC2301F162E581E491E023
S113095011DE66E481E491E00DDE69E481E491E076
S113096009DE64E481E491E005DE6AE381E491E078
S113097001DEC5E2D1E00FE211E0699181E491E08A
S1130980F9DDC017D107C9F720C06EE481E491E016
S1130990F1DD6FE481E491E0EDDD60E281E491E07A
S11309A0E9DD63E481E491E0E5DD61E481E491E083
S11309B0E1DD62E581E491E0DDDD67E481E491E07D
S11309C0D9DD6FE481E491E0D5DDDF91CF911F9112
S11309D00F91089597DF882309F1E4E2F1E0809113
S11309E03C0190E0DC01AA0FBB1F8A0F9B1FDC01B6
S11309F0AA0FBB1FAA0FBB1FA050BF4F80E391E0FB
S1130A0021912D93E817F907D9F780913C018F5F65
S1130A1080933C0180E08FDF10923F0108953FDF17
S1130A20811113C080913E01882379F0E0E3F1E065
S1130A30A4E2B1E08CE391E021912D93E817F9074A
S1130A40D9F781E080933F0176CF089580914001EA
S1130A50882331F080913F01811101C0E0CFBACFEA
S1130A60FFCF0F93CF938FEF81B997E094B982E0D2
S1130A708093410121E0209342011092430190931D
S1130A804401C6E0C093450195E09093460194E08B
S1130A909093470193E090934801809349012093F8
S1130AA04A0110924B0185E290E090934D018093AE
S1130AB04C0190934F0180934E0190935101809388
S1130AC0500182E290E090935301809352019093FD
S1130AD0550180935401909357018093560190934C
S1130AE059018093580190935B0180935A0190932C
S1130AF05D0180935C0190935F0180935E0190930C
S1130B006101809360011092620180E4809363012B
S1130B102093640100E040E061E081E491E035DD90
S1130B2020E040E061E081E491E0F9DCE1ECF0E018
S1130B3088E18083C093C2001092C50089E180934C
S1130B40C4008081806880837894CF910F91089548
S10D0B5088DF7CDFFECFF894FFCFAE
S1130B5A2D2D2D2D2D2D2D2D2D2D2D2D2D2D2D2DB7
S1130B6A2D2D2D2D2D2D2D2D2D2D2D2D2D2D2D2DA7
S1130B7A2D2D2D2D2D2D2D2D2D2D2D2D2D2D2D2D97
S10F0B8A2D2D2D2D2D2D2D2D2D2D2D2D3F
S9030000FC
