S01C0000436F6D6D756E69636174696F6E5F4D6F64756C652E73726563ED
S113000045C0000060C0000083C00000CEC00000F6
S11300105AC0000058C0000056C0000054C0000080
S113002052C0000050C000004EC000004CC0000090
S11300304AC0000048C0000046C0000044C00000A0
S1130040EEC0000013C100003EC000003CC0000030
S113005034C1000038C0000036C0000034C00000C5
S113006032C0000030C000002EC000002CC00000D0
S11300707EC1000028C0000026C0000024C000008B
S113008022C0000020C000001EC0000011241FBEBA
S1130090CFEFD0E4DEBFCDBF11E0A0E0B1E0ECE5EE
S11300A0F0E100E00BBF02C007900D92AC33B10742
S11300B0D9F721E0ACE3B1E001C01D92A738B20743
S11300C0E1F791D1C9C79CCF823049F0833059F010
S11300D0813071F48093540180935901089581E033
S11300E08093830108951092540181E08093590113
S11300F0089581E080937F0188E98093C10086E0C0
S11301008093C2001092C50087E08093C4000895D4
S11301101F920F920FB60F9211240BB60F922F93CA
S11301203F934F935F936F937F938F939F93AF937B
S1130130BF93EF93FF938091800173D581E061D5E4
S113014080933F0180913F018F3021F080913F01E6
S11301508F3139F4ADD51092580181E080934B0171
S11301600EC080913F01883721F080913F018C3788
S113017031F49ED581E08093580180934B018091A6
S113018086014FD5FF91EF91BF91AF919F918F91D0
S11301907F916F915F914F913F912F910F900BBE83
S11301A00F900FBE0F901F9018951F920F920FB6CD
S11301B00F9211240BB60F922F933F934F935F939B
S11301C06F937F938F939F93AF93BF93EF93FF931B
S11301D02C9880914C0190918101891305C081E094
S11301E010D580934F0108C090918201891304C0F7
S11301F081E007D580933E01FF91EF91BF91AF91CC
S11302009F918F917F916F915F914F913F912F912A
S11302100F900BBE0F900FBE0F901F9018951F925A
S11302200F920FB60F9211240BB60F922F933F9398
S11302304F935F936F937F938F939F93AF93BF93EA
S1130240EF93FF935AD5FF91EF91BF91AF919F9197
S11302508F917F916F915F914F913F912F910F906B
S11302600BBE0F900FBE0F901F9018951F920F9208
S11302700FB60F9211240BB60F922F933F934F9307
S11302805F936F937F938F939F93AF93BF93EF93FA
S1130290FF930ED5FF91EF91BF91AF919F918F91F5
S11302A07F916F915F914F913F912F910F900BBE72
S11302B00F900FBE0F901F9018951F920F920FB6BC
S11302C00F9211240BB60F922F933F934F935F938A
S11302D06F937F938F939F93AF93BF93EF93FF930A
S11302E08091C6008093570190917F019130B1F4C1
S11302F010927F01813019F48093520125C082301D
S113030019F48093520120C0833019F48093520170
S11303101BC08430C9F48093520116C091E09093BD
S11303207F0190915201913021F480934F01F2D4D6
S11303300BC0923021F480933E01F5D405C0933074
S113034019F0943009F4C0DEFF91EF91BF91AF91A1
S11303509F918F917F916F915F914F913F912F91D9
S11303600F900BBE0F900FBE0F901F9018951F9209
S11303700F920FB60F9211240BB60F922F933F9347
S11303804F935F936F937F938F939F93AF93BF9399
S1130390EF93FF9380913D019091CE00E82FF0E020
S11303A0E05DFE4F90838F5F8C3019F080933D01A8
S11303B007C010923D0181E08093530180E01AD57B
S11303C0FF91EF91BF91AF919F918F917F916F9129
S11303D05F914F913F912F910F900BBE0F900FBEE5
S11303E00F901F901895CBD384DEA9D5CAD5BAD562
S11303F080914B018130E1F790D5FACF0F931F9391
S1130400CF93DF93FC019081A385B48561110EC065
S11304103C9161E070E0EB0102C0CC0FDD1F9A95C6
S1130420E2F7CE01809583238C930CC03C9161E06C
S113043070E0EB0102C0CC0FDD1F9A95E2F7CE010C
S1130440832B8C939181A585B68541110EC03C9177
S113045041E050E0BA0102C0660F771F9A95E2F7B7
S1130460CB01809583238C930CC03C9141E050E0F8
S1130470EA0102C0CC0FDD1F9A95E2F7CE01832B6F
S11304808C939381A189B289222374F03C9141E039
S113049050E0BA0102C0660F771F9A95E2F7CB01CC
S11304A0809583238C930CC03C9141E050E0EA0199
S11304B002C0CC0FDD1F9A95E2F7CE01832B8C93FB
S11304C09481A389B48926FD0EC03C9141E050E09B
S11304D0BA0102C0660F771F9A95E2F7CB018095A7
S11304E083238C930CC03C9141E050E0EA0102C0AC
S11304F0CC0FDD1F9A95E2F7CE01832B8C93958167
S1130500A589B68925FD0EC03C9141E050E0BA01B1
S113051002C0660F771F9A95E2F7CB01809583237B
S11305208C930CC03C9141E050E0EA0102C0CC0F36
S1130530DD1F9A95E2F7CE01832B8C939681A789D0
S1130540B08D24FD0EC03C9141E050E0BA0102C0E0
S1130550660F771F9A95E2F7CB01809583238C93DE
S11305600CC03C9141E050E0EA0102C0CC0FDD1F19
S11305709A95E2F7CE01832B8C9383A181111FC03E
S113058000C0A785B0893C9181E090E0AC01028075
S113059002C0440F551F0A94E2F7432B4C9300C04A
S11305A000C0A785B0893C91028002C0880F991FC2
S11305B00A94E2F7809583238C9300C000C083A142
S11305C0813009F07DC09781A18DB28D23FD0EC0CD
S11305D03C9141E050E0BA0102C0660F771F9A9542
S11305E0E2F7CB01809583238C930CC03C9141E0CE
S11305F050E0EA0102C0CC0FDD1F9A95E2F7CE016C
S1130600832B8C939085A38DB48D22FD0EC03C91D9
S113061041E050E0BA0102C0660F771F9A95E2F7F5
S1130620CB01809583238C930CC03C9141E050E036
S1130630EA0102C0CC0FDD1F9A95E2F7CE01832BAD
S11306408C939185A58DB68D21FD0EC03C9141E022
S113065050E0BA0102C0660F771F9A95E2F7CB010A
S1130660809583238C930CC03C9141E050E0EA01D7
S113067002C0CC0FDD1F9A95E2F7CE01832B8C9339
S11306809285A78DB0A120FD0EC04C9121E030E0F1
S1130690B90102C0660F771F9A95E2F7CB018095E6
S11306A084238C9389C04C9121E030E0E90102C09D
S11306B0CC0FDD1F9A95E2F7CE01842B8C937CC07E
S11306C09381A189B28923FD0EC03C9141E050E0A1
S11306D0BA0102C0660F771F9A95E2F7CB018095A5
S11306E083238C930CC03C9141E050E0EA0102C0AA
S11306F0CC0FDD1F9A95E2F7CE01832B8C93948166
S1130700A389B48922FD0EC03C9141E050E0BA01B6
S113071002C0660F771F9A95E2F7CB018095832379
S11307208C930CC03C9141E050E0EA0102C0CC0F34
S1130730DD1F9A95E2F7CE01832B8C939581A589D1
S1130740B68921FD0EC03C9141E050E0BA0102C0DF
S1130750660F771F9A95E2F7CB01809583238C93DC
S11307600CC03C9141E050E0EA0102C0CC0FDD1F17
S11307709A95E2F7CE01832B8C939681A789B08D4D
S113078020FD0EC04C9121E030E0B90102C0660F9B
S1130790771F9A95E2F7CB01809584238C930CC044
S11307A04C9121E030E0E90102C0CC0FDD1F9A95A5
S11307B0E2F7CE01842B8C9300C0A785B0894C91BD
S11307C081E090E09C01028002C0220F331F0A9452
S11307D0E2F7242B2C9300C000C0A785B0892C918C
S11307E0028002C0880F991F0A94E2F78095822341
S11307F08C9300C000C00115110549F080E090E021
S1130800D5E0DA95F1F7019680179107C9F7DF91E2
S1130810CF911F910F9108950F931F9308E616E04F
S113082021E040E060E0EADD1F910F9108950F930D
S11308301F93E62FF0E0BF01660F771F6460242F3B
S1130840262B08E210E040E060E0D8DD1F910F9114
S113085008950F931F93E62FF0E0BF01660F771FF3
S1130860660F771F6860440F642B262B08E210E0A4
S113087040E060E0C3DD1F910F9108950F931F9333
S1130880440F440F440F30E1639FB00111246062B0
S1130890642B220F220F262B08E210E040E060E0D8
S11308A0ADDD1F910F9108950F931F93262F0DE235
S11308B010E040E061E0A2DD1F910F9108950F93D5
S11308C01F93CF93DF93EC01122F8FEF97ED0197D6
S11308D0F1F700C00000EB85FC85508181E090E0D9
S11308E09C01088002C0220F331F0A94E2F720956E
S11308F025232083ED85FE8550819C01098002C05B
S1130900220F331F0A94E2F7209525232083EF85D5
S1130910F88950819C010A8002C0220F331F0A9477
S1130920E2F7209525232083E989FA8950819C01E7
S11309300B8002C0220F331F0A94E2F7209525236F
S11309402083EB89FC8950819C010C8002C0220F1A
S1130950331F0A94E2F7209525232083ED89FE892D
S113096050819C010D8002C0220F331F0A94E2F7CC
S1130970209525232083EF89F88D20810E8002C0E5
S1130980880F991F0A94E2F78095822380838BA1B4
S11309908130A9F5E98DFA8D508181E090E09C01C8
S11309A00F8002C0220F331F0A94E2F720952523FB
S11309B02083EB8DFC8D50819C01088402C0220FA2
S11309C0331F0A94E2F7209525232083ED8DFE8DB5
S11309D050819C01098402C0220F331F0A94E2F75C
S11309E0209525232083EF8DF8A120810A8402C05D
S11309F0880F991F0A94E2F7809582238083ED89FA
S1130A00FE89508181E090E09C010D8002C0220F9C
S1130A10331F0A94E2F7252B2083EF89F88D508148
S1130A209C010E8002C0220F331F0A94E2F7252B8B
S1130A30208300C0EF85F88950819C010A8002C0A0
S1130A40220F331F0A94E2F7252B208300C000C035
S1130A50EF85F88950819C010A8002C0220F331F60
S1130A600A94E2F720952523208300C000C0EAE021
S1130A70FBE33197F1F700C0EF85F88950819C01C1
S1130A800A8002C0220F331F0A94E2F7252B208329
S1130A9000C000C0EF85F88950819C010A8002C023
S1130AA0220F331F0A94E2F720952523208300C0E8
S1130AB000C0E0E7F1E03197F1F700C000C0EF8536
S1130AC0F88950819C010A8002C0220F331F0A94C6
S1130AD0E2F7252B208300C000C0EF85F889208130
S1130AE00A8002C0880F991F0A94E2F78095822336
S1130AF0808300C000C08BA181112CC0EF89F88DC8
S1130B00508181E090E09C010E8002C0220F331FCF
S1130B100A94E2F720952523208300C0EF85F88905
S1130B2050819C010A8002C0220F331F0A94E2F70D
S1130B30252B208300C000C0EF85F88920810A801E
S1130B4002C0880F991F0A94E2F78095822380835C
S1130B5000C000C0242F462F6BA1CE018FDE20E001
S1130B6040E060E0CE0175DECE0156DE402F612FFD
S1130B70CE015DDEDF91CF911F910F91089588EB37
S1130B8084B9539885B1886185B98CB583658CBD6A
S1130B908CE38093690086E08DBB789414BC95E067
S1130BA095BD80936E0031E03093800122E0209364
S1130BB086011092840130934E012093850123E035
S1130BC020934D0124E02093810190935A01809356
S1130BD0820187E0809350018AE787BD8DE788BD55
S1130BE016BC0895CF93DF931F92CDB7DEB78983E8
S1130BF089818EBD0DB407FEFDCF0F90DF91CF919B
S1130C000895CF93DF931F92CDB7DEB7898389818F
S1130C108EBD0DB407FEFDCF8EB50F90DF91CF9141
S1130C200895CF93DF931F92CDB7DEB7898399815F
S1130C3080918601981303C02B9A2C980AC099813D
S1130C4080918001981303C02C9A2B9802C02C9A8F
S1130C502B9A0F90DF91CF91089590914E018913B3
S1130C6002C084E8BFCF90914D01891302C085E88A
S1130C70B9CF90915A01891302C086E8B3CF9091FD
S1130C808501891302C084E0ADCF9091810189135D
S1130C9002C085E0A7CF90918201891302C086E04B
S1130CA0A1CF90915001891302C08BEA9BCF089584
S1130CB0CF93DF9380918601B4DF80914E01CDDF25
S1130CC080918401AEDF80918601ABDF8091400189
S1130CD0882369F0C3E2D0E088E084DF2197E1F75C
S1130CE0109240018AE787BD8DE788BD03C08091DB
S1130CF03F0178DFDF91CF91089580918501809342
S1130D004C01809180018DDF80918501A6DF809167
S1130D10840187CF8091860184DF80914D019DDF1E
S1130D2080914F015FCF809186017BDF80915A01D2
S1130D3094DF80913E0156CF81E080934001B8CF8B
S1130D40809159018823E1F310925901089580910B
S1130D5083018823E1F31092830108951F93CF93B5
S1130D60DF93D0913C01D11112C080E026C0719173
S1130D706D91761301C0CF5FCC30F1F0E817F9071D
S1130D80B1F72F5F3F4F2D1748F080E016C020E0E9
S1130D9030E040E351E08CE391E010E0FA01D90146
S1130DA0AA0FBB1FA20FB31FAA0FBB1FAA0FBB1F03
S1130DB0A050BF4FC12FDBCF81E0DF91CF911F91B6
S1130DC00895909124018091300198130FC0E5E2B9
S1130DD0F1E0A1E3B1E080E391E031912D91321390
S1130DE007C0E817F907C9F781E0089580E008957E
S1130DF080E00895882311F05D9808955D9A089520
S1130E000F931F93CF93DF93C82F8BE591E004DDFD
S1130E10CC2301F162E58BE591E046DD66E48BE5E8
S1130E2091E042DD69E48BE591E03EDD64E48BE52D
S1130E3091E03ADD6AE38BE591E036DDC5E2D1E08D
S1130E400FE211E069918BE591E02EDDC017D10727
S1130E50C9F720C06EE48BE591E026DD6FE48BE5F5
S1130E6091E022DD60E28BE591E01EDD63E48BE539
S1130E7091E01ADD61E48BE591E016DD62E58BE536
S1130E8091E012DD67E48BE591E00EDD6FE48BE524
S1130E9091E00ADDDF91CF911F910F91089591DFC9
S1130EA0882309F1E4E2F1E080913C0190E0DC0167
S1130EB0AA0FBB1F8A0F9B1FDC01AA0FBB1FAA0F1F
S1130EC0BB1FA050BF4F80E391E021912D93E81701
S1130ED0F907D9F780913C018F5F80933C0180E052
S1130EE08FDF10925101089539DF811115C028DF79
S1130EF080915401882381F0E0E3F1E0A4E2B1E0C1
S1130F008CE391E021912D93E817F907D9F781E05B
S1130F108093510175DF1BCF089517BC18BC81E085
S1130F2069DF809153018823E1F38091510181119C
S1130F3002C0DADF01C0B3DF10924B01FDCEE9EC51
S1130F40F0E0808180698083EAECF0E08081866053
S1130F50808381E08093CD008FE78093CC00559A05
S1130F605D9A089510925301109251011092540108
S1130F7010925901109283011092400110924B017A
S1130F8008950F938FEF81B984B1836084B93E9A39
S1130F9021E020935B0110925C0186E080935D0167
S1130FA010925E0120935F0192E09093600193E0C0
S1130FB09093610194E09093620195E090936301B2
S1130FC08093640187E08093650185E290E09093CB
S1130FD0670180936601909369018093680188E2B8
S1130FE090E090936B0180936A0182E290E0909389
S1130FF06D0180936C0190936F0180936E019093C7
S113100071018093700190937301809372019093A6
S11310107501809374019093770180937601909386
S113102079018093780190937B0180937A011092E7
S11310307C0180E480937D0120937E0100E040E008
S113104061E08BE591E03BDC20E040E061E08BE592
S10F105091E0FFDB0F910895F894FFCFAE
S113105C2D2D2D2D2D2D2D2D2D2D2D2D2D2D2D2DB0
S113106C2D2D2D2D2D2D2D2D2D2D2D2D2D2D2D2DA0
S113107C2D2D2D2D2D2D2D2D2D2D2D2D2D2D2D2D90
S10F108C2D2D2D2D2D2D2D2D2D2D2D2D38
S9030000FC
