S01C0000436F6D6D756E69636174696F6E5F4D6F64756C652E73726563ED
S113000045C0000061C000008CC00000FAC00000C0
S11300105BC0000059C0000057C0000055C000007C
S113002053C0000051C000004FC000004DC000008C
S11300304BC0000049C0000047C0000045C000009C
S11300400DC1000036C100003FC000003DC00000EB
S1130050C9C1000039C0000037C0000035C000002D
S113006033C0000031C000002FC000002DC00000CC
S11300704EC1000029C0000027C0000025C00000B8
S113008023C0000021C000001FC0000011241FBEB7
S1130090CFEFD0E4DEBFCDBF11E0A0E0B1E0EEEAE7
S11300A0F1E100E00BBF02C007900D92AC33B10741
S11300B0D9F721E0ACE3B1E001C01D92A039B20749
S11300C0E1F76BD10C94D5089BCF823049F0833093
S11300D059F0813071F48093570180935D01089544
S11300E081E08093890108951092570181E0809303
S11300F05D010895E0ECF0E0908195FFFDCF8093E1
S1130100C600089581E08093830188E98093C1004B
S113011086E08093C2001092C50087E08093C400FB
S113012008951F920F920FB60F9211240BB60F92DF
S11301302F933F934F935F936F937F938F939F93EB
S1130140AF93BF93EF93FF9380918501EAD581E04C
S1130150D8D580933F0180913F018F3021F0809169
S11301603F018F31B1F480914E018F5F80934E0136
S113017080914E018A3091F510926E0010924F01D9
S113018045D681E080935C0110924E0180934A0130
S113019025C080913F01883721F080913F018C3741
S11301A0B1F4809155018F5F809355018091550181
S11301B08A30A1F410926E0010924F0127D610924B
S11301C05C011092550181E080934A0107C01092AE
S11301D04E011092550180913F018CDFFF91EF9108
S11301E0BF91AF919F918F917F916F915F914F914B
S11301F03F912F910F900BBE0F900FBE0F901F9049
S113020018951F920F920FB60F9211240BB60F92EE
S11302102F933F934F935F936F937F938F939F930A
S1130220AF93BF93EF93FF9380918F017AD581E0D1
S113023068D580935001FF91EF91BF91AF919F9149
S11302408F917F916F915F914F913F912F910F907B
S11302500BBE0F900FBE0F901F9018951F920F9218
S11302600FB60F9211240BB60F922F933F934F9317
S11302705F936F937F938F939F93AF93BF93EF930A
S1130280FF9380914A01811101C0B3D5FF91EF9191
S1130290BF91AF919F918F917F916F915F914F919A
S11302A03F912F910F900BBE0F900FBE0F901F9098
S11302B018951F920F920FB60F9211240BB60F923E
S11302C02F933F934F935F936F937F938F939F935A
S11302D0AF93BF93EF93FF9380914A01811104C0C0
S11302E079D580913F0106DFFF91EF91BF91AF91E6
S11302F09F918F917F916F915F914F913F912F913A
S11303000F900BBE0F900FBE0F901F9018951F9269
S11303100F920FB60F9211240BB60F922F933F93A7
S11303204F935F936F937F938F939F93AF93BF93F9
S1130330EF93FF9380913E019091CE00E82FF0E07F
S1130340E05DFE4F90838F5F8C3019F080933E0107
S113035007C010923E0181E08093560180E0E4D50D
S1130360FF91EF91BF91AF919F918F917F916F9189
S11303705F914F913F912F910F900BBE0F900FBE45
S11303800F901F90189510923D0181E080938D018C
S113039010924E0110925501089586D6F4DF68D468
S11303A0B1DE6FD694D680914A018823E1F354D606
S11303B0FACF80913D01811109C081E080933D0114
S11303C010928D0186E080936E00089580918D01D6
S11303D0811107C010923D0181E080938D0110923C
S11303E06E0008951F920F920FB60F9211240BB650
S11303F00F922F933F934F935F936F937F938F93BA
S11304009F93AF93BF93EF93FF938091C600809324
S11304105B0190918301913039F510928301813011
S113042019F48093540150C0823019F4809354011C
S11304304BC0833019F48093540146C0843019F4BE
S11304408093540141C0853019F4809354013CC019
S1130450863019F48093540137C08730A9F581E0C0
S113046080938301A6DF30C091E090938301909143
S11304705401913041F490918D01913029F580938C
S11304804F01C4D421C090915401923021F480933F
S11304903C01C8D419C0909154019330A9F09091B3
S11304A05401943011F411DE0FC090915401953031
S11304B021F480938601BFD407C0909154019630F3
S11304C019F480938401B7D4FF91EF91BF91AF9158
S11304D09F918F917F916F915F914F913F912F9158
S11304E00F900BBE0F900FBE0F901F9018950F9397
S11304F01F93CF93DF93FC019081A385B485611191
S11305000EC03C9161E070E0EB0102C0CC0FDD1F36
S11305109A95E2F7CE01809583238C930CC03C918D
S113052061E070E0EB0102C0CC0FDD1F9A95E2F7A9
S1130530CE01832B8C939181A585B68541110EC084
S11305403C9141E050E0BA0102C0660F771F9A95D2
S1130550E2F7CB01809583238C930CC03C9141E05E
S113056050E0EA0102C0CC0FDD1F9A95E2F7CE01FC
S1130570832B8C939381A189B289222374F03C91BB
S113058041E050E0BA0102C0660F771F9A95E2F786
S1130590CB01809583238C930CC03C9141E050E0C7
S11305A0EA0102C0CC0FDD1F9A95E2F7CE01832B3E
S11305B08C939481A389B48926FD0EC03C9141E0BB
S11305C050E0BA0102C0660F771F9A95E2F7CB019B
S11305D0809583238C930CC03C9141E050E0EA0168
S11305E002C0CC0FDD1F9A95E2F7CE01832B8C93CA
S11305F09581A589B68925FD0EC03C9141E050E066
S1130600BA0102C0660F771F9A95E2F7CB01809575
S113061083238C930CC03C9141E050E0EA0102C07A
S1130620CC0FDD1F9A95E2F7CE01832B8C93968134
S1130630A789B08D24FD0EC03C9141E050E0BA0181
S113064002C0660F771F9A95E2F7CB01809583234A
S11306508C930CC03C9141E050E0EA0102C0CC0F05
S1130660DD1F9A95E2F7CE01832B8C9383A1811130
S11306701FC000C0A785B0893C9181E090E0AC0127
S1130680028002C0440F551F0A94E2F7432B4C9397
S113069000C000C0A785B0893C91028002C0880FC9
S11306A0991F0A94E2F7809583238C9300C000C0BD
S11306B083A1813009F07DC09781A18DB28D23FD86
S11306C00EC03C9141E050E0BA0102C0660F771FB2
S11306D09A95E2F7CB01809583238C930CC03C91CF
S11306E041E050E0EA0102C0CC0FDD1F9A95E2F729
S11306F0CE01832B8C939085A38DB48D22FD0EC0E7
S11307003C9141E050E0BA0102C0660F771F9A9510
S1130710E2F7CB01809583238C930CC03C9141E09C
S113072050E0EA0102C0CC0FDD1F9A95E2F7CE013A
S1130730832B8C939185A58DB68D21FD0EC03C91A4
S113074041E050E0BA0102C0660F771F9A95E2F7C4
S1130750CB01809583238C930CC03C9141E050E005
S1130760EA0102C0CC0FDD1F9A95E2F7CE01832B7C
S11307708C939285A78DB0A120FD0EC04C9121E0F1
S113078030E0B90102C0660F771F9A95E2F7CB01FA
S1130790809584238C9389C04C9121E030E0E90159
S11307A002C0CC0FDD1F9A95E2F7CE01842B8C9307
S11307B07CC09381A189B28923FD0EC03C9141E0A4
S11307C050E0BA0102C0660F771F9A95E2F7CB0199
S11307D0809583238C930CC03C9141E050E0EA0166
S11307E002C0CC0FDD1F9A95E2F7CE01832B8C93C8
S11307F09481A389B48922FD0EC03C9141E050E06C
S1130800BA0102C0660F771F9A95E2F7CB01809573
S113081083238C930CC03C9141E050E0EA0102C078
S1130820CC0FDD1F9A95E2F7CE01832B8C93958133
S1130830A589B68921FD0EC03C9141E050E0BA0182
S113084002C0660F771F9A95E2F7CB018095832348
S11308508C930CC03C9141E050E0EA0102C0CC0F03
S1130860DD1F9A95E2F7CE01832B8C939681A7899D
S1130870B08D20FD0EC04C9121E030E0B90102C0E2
S1130880660F771F9A95E2F7CB01809584238C93AA
S11308900CC04C9121E030E0E90102C0CC0FDD1F17
S11308A09A95E2F7CE01842B8C9300C0A785B0897A
S11308B04C9181E090E09C01028002C0220F331F22
S11308C00A94E2F7242B2C9300C000C0A785B089BA
S11308D02C91028002C0880F991F0A94E2F7809538
S11308E082238C9300C000C00115110549F080E0FB
S11308F090E0D5E0DA95F1F7019680179107C9F7F2
S1130900DF91CF911F910F9108950F931F9308E6E4
S113091016E021E040E060E0EADD1F910F910895C8
S11309200F931F93E62FF0E0BF01660F771F6460FB
S1130930242F262B08E210E040E060E0D8DD1F9170
S11309400F9108950F931F93E62FF0E0BF01660FF8
S1130950771F660F771F6860440F642B262B08E20D
S113096010E040E060E0C3DD1F910F9108950F9304
S11309701F93440F440F440F30E1639FB0011124CF
S11309806062642B220F220F262B08E210E040E065
S113099060E0ADDD1F910F9108950F931F93262FF3
S11309A00DE210E040E061E0A2DD1F910F91089597
S11309B00F931F93CF93DF93EC01122F8FEF97EDDB
S11309C00197F1F700C00000EB85FC85508181E0C0
S11309D090E09C01088002C0220F331F0A94E2F7C2
S11309E0209525232083ED85FE8550819C01098077
S11309F002C0220F331F0A94E2F720952523208397
S1130A00EF85F88950819C010A8002C0220F331FB0
S1130A100A94E2F7209525232083E989FA895081F5
S1130A209C010B8002C0220F331F0A94E2F7209529
S1130A3025232083EB89FC8950819C010C8002C012
S1130A40220F331F0A94E2F7209525232083ED8992
S1130A50FE8950819C010D8002C0220F331F0A942D
S1130A60E2F7209525232083EF89F88D20810E80DD
S1130A7002C0880F991F0A94E2F78095822380832D
S1130A808BA18130A9F5E98DFA8D508181E090E048
S1130A909C010F8002C0220F331F0A94E2F72095B5
S1130AA025232083EB8DFC8D50819C01088402C09A
S1130AB0220F331F0A94E2F7209525232083ED8D1E
S1130AC0FE8D50819C01098402C0220F331F0A94B9
S1130AD0E2F7209525232083EF8DF8A120810A8455
S1130AE002C0880F991F0A94E2F7809582238083BD
S1130AF0ED89FE89508181E090E09C010D8002C067
S1130B00220F331F0A94E2F7252B2083EF89F88DF7
S1130B1050819C010E8002C0220F331F0A94E2F719
S1130B20252B208300C0EF85F88950819C010A8021
S1130B3002C0220F331F0A94E2F7252B208300C042
S1130B4000C0EF85F88950819C010A8002C0220F01
S1130B50331F0A94E2F720952523208300C000C0A8
S1130B60EAE0FBE33197F1F700C0EF85F8895081A3
S1130B709C010A8002C0220F331F0A94E2F7252B3E
S1130B80208300C000C0EF85F88950819C010A8051
S1130B9002C0220F331F0A94E2F7209525232083F5
S1130BA000C000C0E0E7F1E03197F1F700C000C0F9
S1130BB0EF85F88950819C010A8002C0220F331FFF
S1130BC00A94E2F7252B208300C000C0EF85F88942
S1130BD020810A8002C0880F991F0A94E2F7809549
S1130BE08223808300C000C08BA181112CC0EF89B7
S1130BF0F88D508181E090E09C010E8002C0220FAC
S1130C00331F0A94E2F720952523208300C0EF8543
S1130C10F88950819C010A8002C0220F331F0A9474
S1130C20E2F7252B208300C000C0EF85F8892081DE
S1130C300A8002C0880F991F0A94E2F780958223E4
S1130C40808300C000C0242F462F6BA1CE018FDE0D
S1130C5020E040E060E0CE0175DECE0156DE402F9C
S1130C60612FCE015DDEDF91CF911F910F91089529
S1130C7088EB84B9539885B1886185B98CB583654F
S1130C808CBD8CE38093690086E08DBB789414BCA2
S1130C9094E095BD31E03093850122E020938F01EB
S1130CA010928C0130934D0120938E0123E0209308
S1130CB04C019093870195E090935E0180938801A5
S1130CC087E08093520188E08093580189E0809303
S1130CD051018AE080938B018AE787BD8DE788BD47
S1130CE016BC0895CF93DF931F92CDB7DEB78983E7
S1130CF089818EBD0DB407FEFDCF0F90DF91CF919A
S1130D000895CF93DF931F92CDB7DEB7898389818E
S1130D108EBD0DB407FEFDCF8EB50F90DF91CF9140
S1130D200895CF93DF931F92CDB7DEB7898399815E
S1130D3080918F01981303C02B9A2C980AC0998133
S1130D4080918501981303C02C9A2B9802C02C9A89
S1130D502B9A0F90DF91CF91089590914D018913B3
S1130D6002C084E8BFCF90914C01891302C085E88A
S1130D70B9CF90915E01891302C086E8B3CF9091F8
S1130D808E01891302C084E0ADCF9091870189134D
S1130D9002C085E0A7CF90918801891302C086E044
S1130DA0A1CF90915201891302C08BEA9BCF9091FD
S1130DB05801891302C087E895CF90915101891396
S1130DC002C08BE88FCF90918B01891302C08FE80A
S1130DD089CF089580918F01A4DF80914D01BDDFFB
S1130DE080918C019EDF80918F019BDF80913F0178
S1130DF079CF80918E0180934B018091850191DFA1
S1130E0080918E01AADF80918C018BCF80918F011C
S1130E1088DF80914C01A1DF80914F0163DF8091D5
S1130E208C017FCF80918F017CDF80915E0195DF03
S1130E3080913C0157CF80918F0173DF80915801DD
S1130E408CDF809186014EDF80918C016ACF809186
S1130E508F0167DF80918B0180DF80915C0142DF2D
S1130E6080918C015ECF80915D018823E1F3109223
S1130E705D010895809189018823E1F3109289012D
S1130E800895809150018823E1F310925001089550
S1130E901F93CF93DF93D0918A01D11112C080E0C8
S1130EA026C071916D91761301C0CF5FCC30F1F003
S1130EB0E817F907B1F72F5F3F4F2D1748F080E08F
S1130EC016C020E030E040E351E08CE391E010E014
S1130ED0FA01D901AA0FBB1FA20FB31FAA0FBB1F90
S1130EE0AA0FBB1FA050BF4FC12FDBCF81E0DF9102
S1130EF0CF911F910895909124018091300198130E
S1130F000FC0E5E2F1E0A1E3B1E080E391E03191CB
S1130F102D91321307C0E817F907C9F781E0089546
S1130F2080E0089580E00895882311F05D98089585
S1130F305D9A08950F931F93CF93DF93C82F8FE586
S1130F4091E0E3DCCC2301F162E58FE591E025DD5E
S1130F5066E48FE591E021DD69E48FE591E01DDD34
S1130F6064E48FE591E019DD6AE38FE591E015DD36
S1130F70C5E2D1E00FE211E069918FE591E00DDD6A
S1130F80C017D107C9F720C06EE48FE591E005DDF5
S1130F906FE48FE591E001DD60E28FE591E0FDDC37
S1130FA063E48FE591E0F9DC61E48FE591E0F5DC41
S1130FB062E58FE591E0F1DC67E48FE591E0EDDC3B
S1130FC06FE48FE591E0E9DCDF91CF911F910F9100
S1130FD0089591DF882331F1E4E2F1E080918A0100
S1130FE090E0DC01AA0FBB1F8A0F9B1FDC01AA0F34
S1130FF0BB1FAA0FBB1FA050BF4F80E391E02191FC
S11310002D93E817F907D9F780918A018F5F8093B0
S11310108A0180E08FDF1092530180915C0190E09F
S113102016DF2FCF089534DF811115C01CDF8091A6
S11310305701882381F0E0E3F1E0A4E2B1E08CE31E
S113104091E021912D93E817F907D9F781E0809376
S1131050530170DF0FCF089581E066DF8091560160
S11310608823E1F31092560180915301811102C04B
S1131070DADF01C0AEDF10924A0186E080936E0091
S11310800895E9ECF0E0808180698083EAECF0E087
S113109080818660808381E08093CD008FE7809398
S11310A0CC00559A5D9A08951092560110925301FE
S11310B01092570110925D011092890110924A0119
S11310C010923E0110928A011092500108950F93DC
S11310D08FEF81B984B1836084B93E9A21E0209373
S11310E05F011092600186E08093610197E0909324
S11310F062018093630185E08093640184E08093BE
S1131100650183E08093660182E080936701209308
S113111068011092690185E290E090936B018093DD
S11311206A0190936D0180936C0188E290E0909342
S11311306F0180936E0182E290E09093710180933D
S11311407001909373018093720190937501809361
S11311507401909377018093760190937901809341
S1131160780190937B0180937A0190937D01809321
S11311707C0190937F0180937E011092800180E432
S1131180809381012093820100E040E061E08FE5DB
S113119091E00EDC20E040E061E08FE591E0D2DBFD
S11111A08FE591E0B2DB0F910895F894FFCF34
S11311AE2D2D2D2D2D2D2D2D2D2D2D2D2D2D2D2D5D
S11311BE2D2D2D2D2D2D2D2D2D2D2D2D2D2D2D2D4D
S11311CE2D2D2D2D2D2D2D2D2D2D2D2D2D2D2D2D3D
S10F11DE2D2D2D2D2D2D2D2D2D2D2D2DE5
S9030000FC
