:1000000045C0000061C000008CC0000004C10000B9
:100010005BC0000059C0000057C0000055C0000080
:1000200053C0000051C000004FC000004DC0000090
:100030004BC0000049C0000047C0000045C00000A0
:1000400017C1000040C100003FC000003DC00000DB
:10005000D5C1000039C0000037C0000035C0000025
:1000600033C0000031C000002FC000002DC00000D0
:1000700058C1000029C0000027C0000025C00000B2
:1000800023C0000021C000001FC0000011241FBEBB
:10009000CFEFD0E4DEBFCDBF11E0A0E0B1E0E4ECF3
:1000A000F2E100E00BBF02C007900D92AE3DB10738
:1000B000D9F722E0AEEDB1E001C01D92A333B20743
:1000C000E1F777D10C9460099BCF823049F08330FF
:1000D00059F0813071F48093FA0180930002089501
:1000E00081E080932C0208951092FA0181E08093C0
:1000F00000020895E0ECF0E0908195FFFDCF809341
:10010000C600089581E08093260288E98093C100AB
:1001100086E08093C2001092C50087E08093C400FF
:1001200008951F920F920FB60F9211240BB60F92E3
:100130002F933F934F935F936F937F938F939F93EF
:10014000AF93BF93EF93FF9380912802F6D581E0A0
:10015000E4D58093E1018091E1018F3021F080911D
:10016000E1018F3169F48091F1018F5F8093F1019A
:100170008091F1018A30E1F581E08093FF0138C080
:100180008091E101883721F08091E1018C3761F4A1
:100190008091F8018F5F8093F8018091F8018A3097
:1001A00039F51092FF0124C08091F1018A3020F4CA
:1001B0008091F8018A30C0F08091F0018F5F8093C8
:1001C000F0018091F001863999F410926E0010923E
:1001D000F20128D681E08093EC011092F801109290
:1001E000F1011092F00104C01092F1011092F80197
:1001F000FF91EF91BF91AF919F918F917F916F91FF
:100200005F914F913F912F910F900BBE0F900FBEBA
:100210000F901F9018951F920F920FB60F921124F6
:100220000BB60F922F933F934F935F936F937F93F0
:100230008F939F93AF93BF93EF93FF93809132027D
:100240007CD581E06AD58093F301FF91EF91BF9156
:10025000AF919F918F917F916F915F914F913F915E
:100260002F910F900BBE0F900FBE0F901F901895FF
:100270001F920F920FB60F9211240BB60F922F936D
:100280003F934F935F936F937F938F939F93AF931E
:10029000BF93EF93FF938091EC01811101C0B5D51D
:1002A000FF91EF91BF91AF919F918F917F916F914E
:1002B0005F914F913F912F910F900BBE0F900FBE0A
:1002C0000F901F9018951F920F920FB60F92112446
:1002D0000BB60F922F933F934F935F936F937F9340
:1002E0008F939F93AF93BF93EF93FF938091EC0114
:1002F000811104C07BD58091E101FCDEFF91EF917B
:10030000BF91AF919F918F917F916F915F914F912D
:100310003F912F910F900BBE0F900FBE0F901F902B
:1003200018951F920F920FB60F9211240BB60F92D1
:100330002F933F934F935F936F937F938F939F93ED
:10034000AF93BF93EF93FF938091E0019091CE0024
:10035000E82FF0E0EE52FE4F90838F5F8C3019F063
:100360008093E00107C01092E00181E08093F901E1
:1003700080E081D6FF91EF91BF91AF919F918F91D6
:100380007F916F915F914F913F912F910F900BBE95
:100390000F900FBE0F901F9018951092DF0181E013
:1003A000809330021092F1011092F8011092F00146
:1003B000089505D7F2DF68D4A5DEEED613D7809175
:1003C000EC018823E1F3D3D6FACF8091DF018111CC
:1003D00009C081E08093DF011092300286E08093B3
:1003E0006E00089580913002811107C01092DF01E4
:1003F00081E08093300210926E0008951F920F9258
:100400000FB60F9211240BB60F922F933F934F9379
:100410005F936F937F938F939F93AF93BF93EF936C
:10042000FF938091C6008093FE0190912602913047
:1004300039F510922602813019F48093F70150C0EB
:10044000823019F48093F7014BC0833019F4809304
:10045000F70146C0843019F48093F70141C085301C
:1004600019F48093F7013CC0863019F48093F701AA
:1004700037C08730A9F581E080932602A6DF30C01F
:1004800091E0909326029091F701913041F4909180
:100490003002913029F58093F201C4D421C09091AB
:1004A000F701923021F48093DE01C8D419C09091F5
:1004B000F7019330A9F09091F701943011F405DE23
:1004C0000FC09091F701953021F480932902BFD499
:1004D00007C09091F701963019F480932702B7D4A2
:1004E000FF91EF91BF91AF919F918F917F916F910C
:1004F0005F914F913F912F910F900BBE0F900FBEC8
:100500000F901F9018950F931F93CF93DF93FC01CB
:100510009081A385B48561110EC03C9161E070E0CB
:10052000EB0102C0CC0FDD1F9A95E2F7CE0180955A
:1005300083238C930CC03C9161E070E0EB0102C01E
:10054000CC0FDD1F9A95E2F7CE01832B8C9391811E
:10055000A585B68541110EC03C9141E050E0BA013D
:1005600002C0660F771F9A95E2F7CB01809583232F
:100570008C930CC03C9141E050E0EA0102C0CC0FEA
:10058000DD1F9A95E2F7CE01832B8C939381A1898D
:10059000B289222374F03C9141E050E0BA0102C0DC
:1005A000660F771F9A95E2F7CB01809583238C9392
:1005B0000CC03C9141E050E0EA0102C0CC0FDD1FCD
:1005C0009A95E2F7CE01832B8C939481A389B48909
:1005D00026FD0EC03C9141E050E0BA0102C0660F1A
:1005E000771F9A95E2F7CB01809583238C930CC0FB
:1005F0003C9141E050E0EA0102C0CC0FDD1F9A952A
:10060000E2F7CE01832B8C939581A589B68925FDD0
:100610000EC03C9141E050E0BA0102C0660F771F66
:100620009A95E2F7CB01809583238C930CC03C9183
:1006300041E050E0EA0102C0CC0FDD1F9A95E2F7DD
:10064000CE01832B8C939681A789B08D24FD0EC09B
:100650003C9141E050E0BA0102C0660F771F9A95C5
:10066000E2F7CB01809583238C930CC03C9141E051
:1006700050E0EA0102C0CC0FDD1F9A95E2F7CE01EF
:10068000832B8C9383A181111FC000C0A785B089E3
:100690003C9181E090E0AC01028002C0440F551F04
:1006A0000A94E2F7432B4C9300C000C0A785B089A1
:1006B0003C91028002C0880F991F0A94E2F780954E
:1006C00083238C9300C000C083A1813009F07DC0DA
:1006D0009781A18DB28D23FD0EC03C9141E050E089
:1006E000BA0102C0660F771F9A95E2F7CB01809599
:1006F00083238C930CC03C9141E050E0EA0102C09E
:10070000CC0FDD1F9A95E2F7CE01832B8C93908559
:10071000A38DB48D22FD0EC03C9141E050E0BA01A2
:1007200002C0660F771F9A95E2F7CB01809583236D
:100730008C930CC03C9141E050E0EA0102C0CC0F28
:10074000DD1F9A95E2F7CE01832B8C939185A58DC1
:10075000B68D21FD0EC03C9141E050E0BA0102C0CF
:10076000660F771F9A95E2F7CB01809583238C93D0
:100770000CC03C9141E050E0EA0102C0CC0FDD1F0B
:100780009A95E2F7CE01832B8C939285A78DB0A129
:1007900020FD0EC04C9121E030E0B90102C0660F8F
:1007A000771F9A95E2F7CB01809584238C9389C0BB
:1007B0004C9121E030E0E90102C0CC0FDD1F9A9599
:1007C000E2F7CE01842B8C937CC09381A189B289FE
:1007D00023FD0EC03C9141E050E0BA0102C0660F1B
:1007E000771F9A95E2F7CB01809583238C930CC0F9
:1007F0003C9141E050E0EA0102C0CC0FDD1F9A9528
:10080000E2F7CE01832B8C939481A389B48922FDD6
:100810000EC03C9141E050E0BA0102C0660F771F64
:100820009A95E2F7CB01809583238C930CC03C9181
:1008300041E050E0EA0102C0CC0FDD1F9A95E2F7DB
:10084000CE01832B8C939581A589B68921FD0EC09D
:100850003C9141E050E0BA0102C0660F771F9A95C3
:10086000E2F7CB01809583238C930CC03C9141E04F
:1008700050E0EA0102C0CC0FDD1F9A95E2F7CE01ED
:10088000832B8C939681A789B08D20FD0EC04C914F
:1008900021E030E0B90102C0660F771F9A95E2F7B8
:1008A000CB01809584238C930CC04C9121E030E0E7
:1008B000E90102C0CC0FDD1F9A95E2F7CE01842B2F
:1008C0008C9300C0A785B0894C9181E090E09C0199
:1008D000028002C0220F331F0A94E2F7242B2C93CC
:1008E00000C000C0A785B0892C91028002C0880F8B
:1008F000991F0A94E2F7809582238C9300C000C070
:100900000115110549F080E090E0D5E0DA95F1F7A6
:10091000019680179107C9F7DF91CF911F910F9131
:1009200008950F931F9308E616E021E040E060E091
:10093000EADD1F910F9108950F931F93E62FF0E0CA
:10094000BF01660F771F6460242F262B08E210E09A
:1009500040E060E0D8DD1F910F9108950F931F9341
:10096000E62FF0E0BF01660F771F660F771F686004
:10097000440F642B262B08E210E040E060E0C3DD6A
:100980001F910F9108950F931F93440F440F440F2D
:1009900030E1639FB00111246062642B220F220FAB
:1009A000262B08E210E040E060E0ADDD1F910F91E2
:1009B00008950F931F93262F0DE210E040E061E0B1
:1009C000A2DD1F910F9108950F931F93CF93DF9393
:1009D000EC01122F8FEF97ED0197F1F700C00000A7
:1009E000EB85FC85508181E090E09C01088002C08D
:1009F000220F331F0A94E2F7209525232083ED85EB
:100A0000FE8550819C01098002C0220F331F0A9489
:100A1000E2F7209525232083EF85F88950819C01FA
:100A20000A8002C0220F331F0A94E2F72095252383
:100A30002083E989FA8950819C010B8002C0220F32
:100A4000331F0A94E2F7209525232083EB89FC8944
:100A500050819C010C8002C0220F331F0A94E2F7E0
:100A6000209525232083ED89FE8950819C010D80EE
:100A700002C0220F331F0A94E2F72095252320831A
:100A8000EF89F88D20810E8002C0880F991F0A948B
:100A9000E2F78095822380838BA18130A9F5E98DCF
:100AA000FA8D508181E090E09C010F8002C0220FFE
:100AB000331F0A94E2F7209525232083EB8DFC8DCC
:100AC00050819C01088402C0220F331F0A94E2F770
:100AD000209525232083ED8DFE8D50819C01098476
:100AE00002C0220F331F0A94E2F7209525232083AA
:100AF000EF8DF8A120810A8402C0880F991F0A9403
:100B0000E2F7809582238083ED89FE89508181E020
:100B100090E09C010D8002C0220F331F0A94E2F77F
:100B2000252B2083EF89F88D50819C010E8002C017
:100B3000220F331F0A94E2F7252B208300C0EF8594
:100B4000F88950819C010A8002C0220F331F0A9449
:100B5000E2F7252B208300C000C0EF85F889508183
:100B60009C010A8002C0220F331F0A94E2F72095ED
:100B70002523208300C000C0EAE0FBE33197F1F7B2
:100B800000C0EF85F88950819C010A8002C0220FC5
:100B9000331F0A94E2F7252B208300C000C0EF85A5
:100BA000F88950819C010A8002C0220F331F0A94E9
:100BB000E2F720952523208300C000C0E0E7F1E0A4
:100BC0003197F1F700C000C0EF85F88950819C0192
:100BD0000A8002C0220F331F0A94E2F7252B2083DC
:100BE00000C000C0EF85F88920810A8002C0880F0C
:100BF000991F0A94E2F780958223808300C000C089
:100C00008BA181112CC0EF89F88D508181E090E09B
:100C10009C010E8002C0220F331F0A94E2F7209538
:100C20002523208300C0EF85F88950819C010A802C
:100C300002C0220F331F0A94E2F7252B208300C045
:100C400000C0EF85F88920810A8002C0880F991FB3
:100C50000A94E2F780958223808300C000C0242F8D
:100C6000462F6BA1CE018FDE20E040E060E0CE0198
:100C700075DECE0156DE402F612FCE015DDEDF91A5
:100C8000CF911F910F91089588EB84B9539885B146
:100C9000886185B98CB583658CBD8CE380936900D0
:100CA00086E08DBB789414BC94E095BD31E0309320
:100CB000280222E02093320210922F023093EF019B
:100CC0002093310223E02093EE0190932A0295E0D5
:100CD0009093010280932B0287E08093F50188E0D6
:100CE0008093FB0189E08093F4018AE080932E02D7
:100CF0008AE787BD8DE788BD16BC0895CF93DF9343
:100D00001F92CDB7DEB7898389818EBD0DB407FEF2
:100D1000FDCF0F90DF91CF910895CF93DF931F9276
:100D2000CDB7DEB7898389818EBD0DB407FEFDCFB7
:100D30008EB50F90DF91CF910895CF93DF931F92DF
:100D4000CDB7DEB78983998180913202981303C0B1
:100D50002B9A2C980AC0998180912802981303C07D
:100D60002C9A2B9802C02C9A2B9A0F90DF91CF913E
:100D700008959091EF01891302C084E8BFCF90914C
:100D8000EE01891302C085E8B9CF90910102891361
:100D900002C086E8B3CF90913102891302C084E08B
:100DA000ADCF90912A02891302C085E0A7CF909120
:100DB0002B02891302C086E0A1CF9091F50189131F
:100DC00002C08BEA9BCF9091FB01891302C087E898
:100DD00095CF9091F401891302C08BE88FCF909149
:100DE0002E02891302C08FE889CF089580913202C4
:100DF000A4DF8091EF01BDDF80912F029EDF809103
:100E000032029BDF8091E10179CF809131028093A2
:100E1000ED018091280291DF80913102AADF80915B
:100E20002F028BCF8091320288DF8091EE01A1DF0B
:100E30008091F20163DF80912F027FCF8091320297
:100E40007CDF8091010295DF8091DE0157CF809198
:100E5000320273DF8091FB018CDF809129024EDF2B
:100E600080912F026ACF8091320267DF80912E023B
:100E700080DF8091FF0142DF80912F025ECF809161
:100E800000028823E1F310920002089580912C0261
:100E90008823E1F310922C0208958091F3018823B6
:100EA000E1F31092F30108951F93CF93DF9300D0E5
:100EB000CDB7DEB719821A8220E030E063ED71E031
:100EC0008DED91E016C05D914191541309C04A81A6
:100ED0004F5F4A834A814A3021F419831A8201C044
:100EE0001A82E817F90779F72F5F3F4F2231310552
:100EF00089F0122FD901AA0FBB1FA901440F551F5A
:100F0000440F551F440F551FA40FB51FA050BF4FCE
:100F1000FB01D9CF89810F900F90DF91CF911F9165
:100F20000895FF920F931F93CF93DF93C4EBD1E00B
:100F300006EC11E0F990B8DFF81629F0C017D107D8
:100F4000C9F780E001C081E0DF91CF911F910F913F
:100F5000FF9008951F93CF93DF9300D0CDB7DEB7F6
:100F600019821A8220E030E067EC71E081ED91E0B7
:100F700016C05D914191541309C04A814F5F4A8365
:100F80004A814A3021F419831A8201C01A82E81773
:100F9000F90779F72F5F3F4F2231310589F0122F82
:100FA000D901AA0FBB1FA901440F551F440F551F9C
:100FB000440F551FA40FB51FA050BF4FFB01D9CF41
:100FC00089810F900F90DF91CF911F910895CF935A
:100FD000DF9300D0CDB7DEB7BDDF898365DF8A83BD
:100FE000898180FD0CC04A81298150E030E02F5F6B
:100FF0003F4F81E04217530791F080E010C0898194
:1010000080FF0CC04A81298150E030E02150310935
:1010100081E04217530719F080E001C080E00F9093
:101020000F90DF91CF91089595DF80FD12C09091D0
:101030002D02E92FF0E0EC54FE4F8083E92FEF5FA3
:10104000F0E0EC54FE4F8F5F80839E5F90932D0203
:10105000089590912D02E92FF0E0EC54FE4F80832B
:10106000E92FEF5FF0E0EC54FE4F815080839E5FEC
:1010700090932D020895882311F05D9808955D9A4C
:1010800008950F931F93CF93DF93C82F82E092E0D0
:1010900048DCCC2301F162E582E092E08ADC66E480
:1010A00082E092E086DC69E482E092E082DC64E443
:1010B00082E092E07EDC6AE382E092E07ADCC7ECD8
:1010C000D1E001ED11E0699182E092E072DCC0179D
:1010D000D107C9F720C06EE482E092E06ADC6FE4D9
:1010E00082E092E066DC60E282E092E062DC63E44F
:1010F00082E092E05EDC61E482E092E05ADC62E54C
:1011000082E092E056DC67E482E092E052DC6FE439
:1011100082E092E04EDCDF91CF911F910F91089514
:1011200056DF882351F080DF80E0ABDF8091FF0144
:1011300090E099DEB2DE1092F6010895F2DE8111A0
:1011400015C09DDE8091FA01882381F0E2EDF1E087
:10115000A6ECB1E08EED91E021912D93E817F9070F
:10116000D9F781E08093F6018CDF90CE089581E07D
:1011700082DF8091F9018823E1F31092F9018091D7
:10118000F601811102C0DADF01C0CADF1092EC0162
:1011900086E080936E000895E9ECF0E0808180693C
:1011A0008083EAECF0E080818660808381E0809338
:1011B000CD008FE78093CC00559A5D9A08951092E8
:1011C000F9011092F6011092FA01109200021092A9
:1011D0002C021092EC011092E00110922D0210925C
:1011E000F30108950F938FEF81B984B1836084B9BF
:1011F0003E9A21E0209302021092030286E080933F
:10120000040297E0909305028093060285E08093A4
:10121000070284E08093080283E08093090282E061
:1012200080930A0220930B0210920C0285E290E058
:1012300090930E0280930D029093100280930F0200
:1012400088E290E0909312028093110282E290E093
:1012500090931402809313029093160280931502C8
:10126000909318028093170290931A0280931902A8
:1012700090931C0280931B0290931E0280931D0288
:101280009093200280931F02909322028093210268
:101290001092230280E4809324022093250200E030
:1012A00040E061E082E092E08FDB20E040E061E03E
:1012B00082E092E053DB82E092E033DB0F9108950D
:0412C000F894FFCFD0
:1012C40030313030453242333742303130304532BC
:1012D400444444333031303045313836463530318A
:1012E4003030453133423942303130304537313195
:1012F4003241303130304531323943413236303089
:101304004442393136413236303044423237433444
:101314003236303044384144304532363030443847
:101324004142384232363030443344383246323621
:10133400303044334442423830313030413739342C
:10134400393530313030413738424643303130302E
:1013540041374134393630313030413741443644F5
:101364003237303042384530394332373030423901
:1013740031343639141414141414141414141414A5
:101384001414141414142D2D2D2D2D2D2D2D2D2D1F
:0E1394002D2D2D2D2D2D2D2D2D2D2D2D2D2DD5
:00000001FF
