S01C0000436F6D6D756E69636174696F6E5F4D6F64756C652E73726563ED
S113000045C0000061C00000B5C000003BC1000055
S11300105BC0000059C0000057C000004BC2000084
S113002053C0000051C000004FC000004DC000008C
S11300304BC0000049C0000047C0000045C000009C
S11300404DC1000076C100003FC000003DC000006B
S113005058C2000039C0000037C0000035C000009D
S113006033C0000031C000002FC000002DC00000CC
S113007098C1000029C0000027C0000025C000006E
S113008023C0000021C000001FC0000011241FBEB7
S1130090CFEFD0E4DEBFCDBF11E0A0E0B1E0E8EAED
S11300A0F3E100E00BBF02C007900D92AE3DB10733
S11300B0D9F722E0AEEDB1E001C01D92A732B2073C
S11300C0E1F7C2D10C94D2099BCF823049F083303E
S11300D059F0813071F48093F2018093F90108950D
S11300E081E08093220208951092F20181E08093CE
S11300F0F9010895E0ECF0E0908195FFFDCF809345
S1130100C600089581E080931E0288E98093C100AF
S113011086E08093C2001092C50087E08093C400FB
S11301200895CF93C62F8930A9F028F4873041F081
S11301308830F1F40AC08A3091F08B30C9F414C0CD
S113014081E0D8DF8C2FD6DF13C082E0D3DF8C2F81
S1130150D1DF0EC083E0CEDF8C2FCCDF09C084E07A
S1130160C9DF8C2FC7DF04C085E0C4DF8C2FC2DF5A
S1130170CF9108951F920F920FB60F9211240BB6D0
S11301800F922F933F934F935F936F937F938F932C
S11301909F93AF93BF93EF93FF9389E030D681E0B1
S11301A01ED68093F6018091F6018F3021F0809164
S11301B0F6018F3171F48091ED018F5F8093ED0131
S11301C08091ED018A3009F048C081E08093F80104
S11301D044C08091F601883721F08091F6018C3774
S11301E061F48091F0018F5F8093F0018091F001C0
S11301F08A3099F51092F80130C08091ED018A306F
S113020020F48091F0018A3020F18091EC018F5F1D
S11302108093EC018091EC018238F9F410926E0025
S113022015BC8091F801811104C080E880932402F8
S113023005C08091F8018111109224022DD681E02D
S11302408093EB011092F0011092ED011092EC01F9
S113025004C01092ED011092F0018AE0D0D5FF9114
S1130260EF91BF91AF919F918F917F916F915F912A
S11302704F913F912F910F900BBE0F900FBE0F9097
S11302801F9018951F920F920FB60F9211240BB660
S11302900F922F933F934F935F936F937F938F931B
S11302A09F93AF93BF93EF93FF938AE0A8D581E028
S11302B096D58093EE01FF91EF91BF91AF919F91FD
S11302C08F917F916F915F914F913F912F910F90FB
S11302D00BBE0F900FBE0F901F9018951F920F9298
S11302E00FB60F9211240BB60F922F933F934F9397
S11302F05F936F937F938F939F93AF93BF93EF938A
S1130300FF938091EB01811101C0BDD5FF91EF9165
S1130310BF91AF919F918F917F916F915F914F9119
S11303203F912F910F900BBE0F900FBE0F901F9017
S113033018951F920F920FB60F9211240BB60F92BD
S11303402F933F934F935F936F937F938F939F93D9
S1130350AF93BF93EF93FF938091EB0181110EC094
S113036087D58091EA018F5F8093EA01893131F466
S11303706091F60187E0D5DE1092EA01FF91EF91DA
S1130380BF91AF919F918F917F916F915F914F91A9
S11303903F912F910F900BBE0F900FBE0F901F90A7
S11303A018951F920F920FB60F9211240BB60F924D
S11303B02F933F934F935F936F937F938F939F9369
S11303C0AF93BF93EF93FF93E091DF018091CE0051
S11303D0F0E0EE52FE4F80838091DF018F5F8093C7
S11303E0DF018091DF018C3039F41092DF0181E06C
S11303F08093F10180E084D6FF91EF91BF91AF919A
S11304009F918F917F916F915F914F913F912F9128
S11304100F900BBE0F900FBE0F901F90189556981B
S113042088E08093680080E4809373001092DE017A
S113043081E0809325021092ED011092F001109258
S1130440EC011092EA0108952CD7E9DFA1D45ADE19
S113045015D73AD78091EB018130E1F7EDD6FACF89
S11304608091DE01811110C081E08093DE01109241
S1130470250286E080936E0084E085BD1092EB0136
S11304806091250288E04DCE80912502811111C032
S11304901092DE0181E08093250210926E0015BC5B
S11304A01092EB0110922402F7D46091250288E0A7
S11304B038CE08951F920F920FB60F9211240BB6E7
S11304C00F922F933F934F935F936F937F938F93E9
S11304D09F93AF93BF93EF93FF93C2DFFF91EF918D
S11304E0BF91AF919F918F917F916F915F914F9148
S11304F03F912F910F900BBE0F900FBE0F901F9046
S113050018951F920F920FB60F9211240BB60F92EB
S11305102F933F934F935F936F937F938F939F9307
S1130520AF93BF93EF93FF938091C6008093F7013D
S113053090911E02913061F510921E02813019F4DF
S11305408093200251C0823019F4809320024CC061
S1130550833041F481E080931E0283E08093200283
S1130560BDD442C0843019F4809320023DC085304C
S113057019F48093200238C0863019F48093200245
S113058033C0873089F581E080931E0269DF2CC077
S113059091E090931E0290912002913041F4909149
S11305A02502913009F58093240276D41DC09091E0
S11305B02002923021F48093F40177D415C09091F5
S11305C02002943011F481DD0FC090912002953007
S11305D021F48093210270D407C0909120029630B8
S11305E019F480931F0268D4FF91EF91BF91AF91EA
S11305F09F918F917F916F915F914F913F912F9137
S11306000F900BBE0F900FBE0F901F9018950F9375
S11306101F93CF93DF93FC019081A385B48561116F
S11306200EC03C9161E070E0EB0102C0CC0FDD1F15
S11306309A95E2F7CE01809583238C930CC03C916C
S113064061E070E0EB0102C0CC0FDD1F9A95E2F788
S1130650CE01832B8C939181A585B68541110EC063
S11306603C9141E050E0BA0102C0660F771F9A95B1
S1130670E2F7CB01809583238C930CC03C9141E03D
S113068050E0EA0102C0CC0FDD1F9A95E2F7CE01DB
S1130690832B8C939381A189B289222374F03C919A
S11306A041E050E0BA0102C0660F771F9A95E2F765
S11306B0CB01809583238C930CC03C9141E050E0A6
S11306C0EA0102C0CC0FDD1F9A95E2F7CE01832B1D
S11306D08C939481A389B48926FD0EC03C9141E09A
S11306E050E0BA0102C0660F771F9A95E2F7CB017A
S11306F0809583238C930CC03C9141E050E0EA0147
S113070002C0CC0FDD1F9A95E2F7CE01832B8C93A8
S11307109581A589B68925FD0EC03C9141E050E044
S1130720BA0102C0660F771F9A95E2F7CB01809554
S113073083238C930CC03C9141E050E0EA0102C059
S1130740CC0FDD1F9A95E2F7CE01832B8C93968113
S1130750A789B08D24FD0EC03C9141E050E0BA0160
S113076002C0660F771F9A95E2F7CB018095832329
S11307708C930CC03C9141E050E0EA0102C0CC0FE4
S1130780DD1F9A95E2F7CE01832B8C9383A181110F
S11307901FC000C0A785B0893C9181E090E0AC0106
S11307A0028002C0440F551F0A94E2F7432B4C9376
S11307B000C000C0A785B0893C91028002C0880FA8
S11307C0991F0A94E2F7809583238C9300C000C09C
S11307D083A1813009F07DC09781A18DB28D23FD65
S11307E00EC03C9141E050E0BA0102C0660F771F91
S11307F09A95E2F7CB01809583238C930CC03C91AE
S113080041E050E0EA0102C0CC0FDD1F9A95E2F707
S1130810CE01832B8C939085A38DB48D22FD0EC0C5
S11308203C9141E050E0BA0102C0660F771F9A95EF
S1130830E2F7CB01809583238C930CC03C9141E07B
S113084050E0EA0102C0CC0FDD1F9A95E2F7CE0119
S1130850832B8C939185A58DB68D21FD0EC03C9183
S113086041E050E0BA0102C0660F771F9A95E2F7A3
S1130870CB01809583238C930CC03C9141E050E0E4
S1130880EA0102C0CC0FDD1F9A95E2F7CE01832B5B
S11308908C939285A78DB0A120FD0EC04C9121E0D0
S11308A030E0B90102C0660F771F9A95E2F7CB01D9
S11308B0809584238C9389C04C9121E030E0E90138
S11308C002C0CC0FDD1F9A95E2F7CE01842B8C93E6
S11308D07CC09381A189B28923FD0EC03C9141E083
S11308E050E0BA0102C0660F771F9A95E2F7CB0178
S11308F0809583238C930CC03C9141E050E0EA0145
S113090002C0CC0FDD1F9A95E2F7CE01832B8C93A6
S11309109481A389B48922FD0EC03C9141E050E04A
S1130920BA0102C0660F771F9A95E2F7CB01809552
S113093083238C930CC03C9141E050E0EA0102C057
S1130940CC0FDD1F9A95E2F7CE01832B8C93958112
S1130950A589B68921FD0EC03C9141E050E0BA0161
S113096002C0660F771F9A95E2F7CB018095832327
S11309708C930CC03C9141E050E0EA0102C0CC0FE2
S1130980DD1F9A95E2F7CE01832B8C939681A7897C
S1130990B08D20FD0EC04C9121E030E0B90102C0C1
S11309A0660F771F9A95E2F7CB01809584238C9389
S11309B00CC04C9121E030E0E90102C0CC0FDD1FF6
S11309C09A95E2F7CE01842B8C9300C0A785B08959
S11309D04C9181E090E09C01028002C0220F331F01
S11309E00A94E2F7242B2C9300C000C0A785B08999
S11309F02C91028002C0880F991F0A94E2F7809517
S1130A0082238C9300C000C00115110549F080E0D9
S1130A1090E0D5E0DA95F1F7019680179107C9F7D0
S1130A20DF91CF911F910F9108950F931F9308E6C3
S1130A3016E021E040E060E0EADD1F910F910895A7
S1130A400F931F93E62FF0E0BF01660F771F6460DA
S1130A50242F262B08E210E040E060E0D8DD1F914F
S1130A600F9108950F931F93E62FF0E0BF01660FD7
S1130A70771F660F771F6860440F642B262B08E2EC
S1130A8010E040E060E0C3DD1F910F9108950F93E3
S1130A901F93440F440F440F30E1639FB0011124AE
S1130AA06062642B220F220F262B08E210E040E044
S1130AB060E0ADDD1F910F9108950F931F93262FD2
S1130AC00DE210E040E061E0A2DD1F910F91089576
S1130AD00F931F93CF93DF93EC01122F8FEF97EDBA
S1130AE00197F1F700C00000EB85FC85508181E09F
S1130AF090E09C01088002C0220F331F0A94E2F7A1
S1130B00209525232083ED85FE8550819C01098055
S1130B1002C0220F331F0A94E2F720952523208375
S1130B20EF85F88950819C010A8002C0220F331F8F
S1130B300A94E2F7209525232083E989FA895081D4
S1130B409C010B8002C0220F331F0A94E2F7209508
S1130B5025232083EB89FC8950819C010C8002C0F1
S1130B60220F331F0A94E2F7209525232083ED8971
S1130B70FE8950819C010D8002C0220F331F0A940C
S1130B80E2F7209525232083EF89F88D20810E80BC
S1130B9002C0880F991F0A94E2F78095822380830C
S1130BA08BA18130A9F5E98DFA8D508181E090E027
S1130BB09C010F8002C0220F331F0A94E2F7209594
S1130BC025232083EB8DFC8D50819C01088402C079
S1130BD0220F331F0A94E2F7209525232083ED8DFD
S1130BE0FE8D50819C01098402C0220F331F0A9498
S1130BF0E2F7209525232083EF8DF8A120810A8434
S1130C0002C0880F991F0A94E2F78095822380839B
S1130C10ED89FE89508181E090E09C010D8002C045
S1130C20220F331F0A94E2F7252B2083EF89F88DD6
S1130C3050819C010E8002C0220F331F0A94E2F7F8
S1130C40252B208300C0EF85F88950819C010A8000
S1130C5002C0220F331F0A94E2F7252B208300C021
S1130C6000C0EF85F88950819C010A8002C0220FE0
S1130C70331F0A94E2F720952523208300C000C087
S1130C80EAE0FBE33197F1F700C0EF85F889508182
S1130C909C010A8002C0220F331F0A94E2F7252B1D
S1130CA0208300C000C0EF85F88950819C010A8030
S1130CB002C0220F331F0A94E2F7209525232083D4
S1130CC000C000C0E0E7F1E03197F1F700C000C0D8
S1130CD0EF85F88950819C010A8002C0220F331FDE
S1130CE00A94E2F7252B208300C000C0EF85F88921
S1130CF020810A8002C0880F991F0A94E2F7809528
S1130D008223808300C000C08BA181112CC0EF8995
S1130D10F88D508181E090E09C010E8002C0220F8A
S1130D20331F0A94E2F720952523208300C0EF8522
S1130D30F88950819C010A8002C0220F331F0A9453
S1130D40E2F7252B208300C000C0EF85F8892081BD
S1130D500A8002C0880F991F0A94E2F780958223C3
S1130D60808300C000C0242F462F6BA1CE018FDEEC
S1130D7020E040E060E0CE0175DECE0156DE402F7B
S1130D80612FCE015DDEDF91CF911F910F91089508
S1130D9088EB84B9539885B1886185B98CB583652E
S1130DA08CBD8CE38093690086E08DBB789414BC81
S1130DB084E085BD88E787BD82E888BD16BC0895B8
S1130DC0CF93DF931F92CDB7DEB7898389818EBD20
S1130DD00DB407FEFDCF0F90DF91CF910895CF930F
S1130DE0DF931F92CDB7DEB7898389818EBD0DB4A1
S1130DF007FEFDCF8EB50F90DF91CF910895CF936D
S1130E00DF931F92CDB7DEB7898389818A3019F4C5
S1130E102B9A2C9808C08981893019F42C9A2B9824
S1130E2002C02C9A2B9A0F90DF91CF9108958130B4
S1130E3011F484E8C5CF833011F485E8C1CF843040
S1130E4011F486E8BDCF823011F484E0B9CF853047
S1130E5011F487E8B5CF863011F48BE8B1CF873031
S1130E6011F48FE8ADCF883011F48FE9A9CF08953C
S1130E708AE0C5DF81E0DBDF8BE0C1DF8AE0BFDF32
S1130E808091F6019DCF82E08093260289E0B7DF4E
S1130E9082E0CDDF8BE0B3CF8AE0B1DF83E0C7DF50
S1130EA0809124028DDF8BE0AACF8AE0A8DF84E062
S1130EB0BEDF8091F40184CF8AE0A1DF85E0B7DF53
S1130EC0809121027DDF8BE09ACF8AE098DF87E072
S1130ED0AEDF8091F80174DF8BE091CF89E08FDF82
S1130EE088E0A5DF8BE08BCF8091F9018823E1F3C3
S1130EF01092F9010895809122028823E1F310925F
S1130F00220208958091EE018823E1F31092EE010C
S1130F1008951F93CF93DF9300D0CDB7DEB7198226
S1130F201A8220E030E063ED71E08DED91E016C0AF
S1130F305D914191541309C04A814F5F4A834A81AC
S1130F404A3021F419831A8201C01A82E817F9077A
S1130F5079F72F5F3F4F2231310589F0122FD901E4
S1130F60AA0FBB1FA901440F551F440F551F440F5F
S1130F70551FA40FB51FA050BF4FFB01D9CF8981C6
S1130F800F900F90DF91CF911F910895FF920F93CF
S1130F901F93CF93DF93C4EBD1E006EC11E0F990FB
S1130FA0B8DFF81629F0C017D107C9F780E001C0EF
S1130FB081E0DF91CF911F910F91FF9008951F93CE
S1130FC0CF93DF9300D0CDB7DEB719821A8220E029
S1130FD030E067EC71E081ED91E016C05D914191E4
S1130FE0541309C04A814F5F4A834A814A3021F42D
S1130FF019831A8201C01A82E817F90779F72F5F5B
S11310003F4F2231310589F0122FD901AA0FBB1F9E
S1131010A901440F551F440F551F440F551FA40F1A
S1131020B51FA050BF4FFB01D9CF89810F900F90FE
S1131030DF91CF911F910895CF93DF9300D0CDB767
S1131040DEB7BDDF898365DF8A83898180FD0CC0BB
S11310504A81298150E030E02F5F3F4F81E0421701
S1131060530791F080E010C0898180FF0CC04A8151
S1131070298150E030E02150310981E042175307C3
S113108019F080E001C080E00F900F90DF91CF91C4
S11310900895CF9394DF80FD19C090912302E92F26
S11310A0F0E0EC54FE4F8083C82FCF5FE92FEF5F51
S11310B0F0E0EC54FE4FC0839E5F90932302682FB0
S11310C08AE02FD86C2F8AE02CD818C09091230284
S11310D0E92FF0E0EC54FE4F8083C82FC150E92F74
S11310E0EF5FF0E0EC54FE4FC0839E5F90932302C9
S11310F0682F8AE016D86C2F8AE013D8CF91089510
S1131100813011F45D9808955D9A08950F931F93AB
S1131110CF93DF93C82F8AEF91E087DCC13001F5CC
S113112062E58AEF91E0C9DC66E48AEF91E0C5DC10
S113113069E48AEF91E0C1DC64E48AEF91E0BDDC0C
S11311406AE38AEF91E0B9DCC7ECD1E001ED11E08C
S113115069918AEF91E0B1DCC017D107C9F720C0CB
S11311606EE48AEF91E0A9DC6FE48AEF91E0A5DCFC
S113117060E28AEF91E0A1DC63E48AEF91E09DDC18
S113118061E48AEF91E099DC62E58AEF91E095DC15
S113119067E48AEF91E091DC6FE48AEF91E08DDC03
S11311A0DF91CF911F910F91089546DF813099F41B
S11311B070DF80E0ABDF8091F80190E086DEA2DE94
S11311C01092EF0160E28BE00E949100A2DE682F92
S11311D089E00C9491009DDE682F89E00C949100C5
S11311E0D5DE813029F495DE682F89E00C949100D6
S11311F07BDE8091F2018130D1F4E2EDF1E0A6ECE6
S1131200B1E08EED91E021912D93E817F907D9F71C
S113121081E08093EF017ADFD2DE682F89E00E94BB
S11312209100CDDE682F8BE00E94910064CE71DEC8
S1131230682F89E00C94910081E062DF06C0809100
S1131240EB01811102C05CDF04C08091F1018823AD
S1131250B1F31092F1018091EB01813061F480913E
S1131260EF01811102C0BCDF01C09FDF86E08093E3
S11312706E0084E085BD1092EB010895E9ECF0E086
S1131280808180698083EAECF0E0808186608083DD
S113129081E08093CD008FE78093CC00559A5D9ACE
S11312A008951092F1011092EF011092F201109240
S11312B0F901109222021092EB011092DF011092B8
S11312C023021092EE0108950F938FEF81B984B138
S11312D0836084B93E9A21E02093FA011092FB01C5
S11312E086E08093FC0197E09093FD018093FE01DA
S11312F085E08093FF0184E08093000283E0809383
S1131300010282E0809302022093030210920402FD
S113131085E290E090930602809305029093080280
S11313208093070288E290E090930A028093090276
S113133082E290E090930C0280930B0290930E0251
S113134080930D029093100280930F0290931202E7
S113135080931102909314028093130290931602C7
S113136080931502909318028093170290931A02A7
S11313708093190210921B0280E480931C02209334
S11313801D0200E040E061E08AEF91E0A1DB20E093
S113139040E061E08AEF91E065DB8AEF91E045DBB4
S10B13A00F910895F894FFCFAA
S11313A830313030453242333742303130304532D3
S11313B844444433303130304531383646353031A1
S11313C830304531334239423031303045373131AC
S11313D832413031303045313239434132363030A0
S11313E8444239313641323630304442323743345C
S11313F8323630304438414430453236303044385F
S11314084142384232363030443344383246323638
S11314183030443344424238303130304137393443
S11314283935303130304137384246433031303045
S1131438413741343936303130304137414436440C
S11314483237303042384530394332373030423918
S113145831343639141414141414141414141414BC
S11314681414141414142D2D2D2D2D2D2D2D2D2D36
S11114782D2D2D2D2D2D2D2D2D2D2D2D2D2DEC
S9030000FC
