S02100004144636F6E76657274696F6E5F6C696E655F73656E736F72732E73726563C4
S113000045C0000068C0000051C000004FC000009F
S11300104DC000004BC0000049C0000047C00000B4
S113002045C0000043C0000041C000003FC00000C4
S11300303DC000003BC0000039C0000037C00000D4
S113004035C0000033C0000031C000002FC00000E4
S11300502DC000002BC0000029C0000027C00000F4
S113006026C0000023C0000021C000001FC0000003
S11300701DC000001BC0000019C0000017C0000014
S113008015C0000013C0000011C0000011241FBEE1
S1130090CFEFD0E4DEBFCDBF21E0A0E0B1E001C0EE
S11300A01D92A130B207E1F732D048C0A9CF1F9208
S11300B00F920FB60F9211248F9380917800809342
S11300C0000180917900809300018F910F900FBE01
S11300D00F901F9018951F920F920FB60F92112434
S11300E00BB60F928F93EF93FF93EAE7F0E08081D2
S11300F080648083808184FFFDCFFF91EF918F9195
S11301000F900BBE0F900FBE0F901F90189511B853
S11301108FEF84B984E085B981E280937C008EE816
S113012080937A00E9E6F0E08081816080838081B9
S11301308260808381E08DBB7894FFCFF894FFCFF9
S9030000FC
