S01500004D61737465725F73656E736F722E73726563AA
S113000045C0000060C0000086C00000B1C0000010
S11300105AC0000058C0000056C0000054C0000080
S113002052C0000050C000004EC000004CC0000090
S11300304AC0000048C0000046C0000044C00000A0
S113004042C0000040C000003EC000003CC00000B0
S11300503AC0000038C0000036C0000034C00000C0
S113006032C0000030C000002EC000002CC00000D0
S11300702AC0000028C0000026C0000024C00000E0
S113008022C0000020C000001EC0000011241FBEBA
S1130090CFEFD0E4DEBFCDBF11E0A0E0B1E0EEECE5
S11300A0F1E000E00BBF02C007900D92A430B1074D
S11300B0D9F721E0A4E0B1E001C01D92A830B20755
S11300C0E1F70ED082C09CCF84B1886B84B98BEDEC
S11300D08CBD8CE38093690086E08DBB7894089591
S11300E0F3DFFFCF8EBD0DB407FEFDCF8EB5809339
S11300F0040110920501089590930701809306016D
S113010020910201309103018217930711F42B9A75
S113011008952C9A08951F920F920FB60F921124EE
S11301200BB60F922F933F934F935F936F937F93ED
S11301308F939F93AF93BF93EF93FF9380910201AB
S113014090910301D9DF81E0CDDFFF91EF91BF9161
S1130150AF919F918F917F916F915F914F913F915B
S11301602F910F900BBE0F900FBE0F901F901895FC
S11301701F920F920FB60F9211240BB60F922F936A
S11301803F934F935F936F937F938F939F93AF931B
S1130190BF93EF93FF938091000190910101ACDF35
S11301A082E0A0DFFF91EF91BF91AF919F918F917A
S11301B07F916F915F914F913F912F910F900BBE63
S11101C00F900FBE0F901F901895F894FFCF6C
S10701CE0200010026
S9030000FC
