S01C00004D61737465725F636F6D6D756E69636174696F6E2E73726563C7
S113000045C0000060C00000D2C000008DC00000E8
S11300105AC0000058C0000056C0000054C0000080
S113002052C0000050C000004EC000004CC0000090
S11300304AC0000048C0000046C0000044C00000A0
S113004042C0000040C000003EC000003CC00000B0
S11300503AC0000038C0000036C0000034C00000C0
S113006032C0000030C000002EC000002CC00000D0
S11300702AC0000028C0000026C0000024C00000E0
S113008022C0000020C000001EC0000011241FBEBA
S1130090CFEFD0E4DEBFCDBF11E0A0E0B1E0E8ECEB
S11300A0F2E000E00BBF02C007900D92AA30B10746
S11300B0D9F721E0AAE0B1E001C01D92AC31B2074A
S11300C0E1F7FBD0FFC09CCF8FEF8AB980EB84B9F6
S11300D085B1886185B98CB583658CBD80E38093D7
S11300E0690084E08DBB78940895CF93DF931F92C9
S11300F0CDB7DEB7898389818EBD0DB407FEFDCFF0
S11301000F90DF91CF910895CF93DF931F92CDB7D6
S1130110DEB7898389818EBD0DB407FEFDCF8EB510
S11301200F90DF91CF9108951F920F920FB60F9207
S113013011240BB60F922F933F934F935F936F93BA
S11301407F938F939F93AF93BF93EF93FF932C98D9
S11301508091170190910301891305C081E0D4DFD8
S11301608093180111C090910501891305C081E0A5
S1130170CBDF80930C0108C090910101891304C066
S113018081E0C2DF80930B01FF91EF91BF91AF91AA
S11301909F918F917F916F915F914F913F912F919B
S11301A00F900BBE0F900FBE0F901F9018951F92CB
S11301B00F920FB60F9211240BB60F922F933F9309
S11301C04F935F936F937F938F939F93AF93BF935B
S11301D0EF93FF932B9881E097DF80930C01FF91BD
S11301E0EF91BF91AF919F918F917F916F915F91AB
S11301F04F913F912F910F900BBE0F900FBE0F9018
S11302001F90189590910701891303C02B9A2C987D
S1130210089590910801891303C02C9A2B9808958E
S11302202C9A2B9A089590910601891302C084E8B0
S11302305CCF90910401891302C085E856CF909158
S11302400201891302C086E850CF909105018913F9
S113025002C084E04ACF90910301891302C085E073
S113026044CF90910101891302C086E03ECF909162
S11302700001891302C08BEA38CF089580910701E9
S1130280C1DF80910601CFDF8AEA80930C0180915F
S11302900A01B8DF80910701B5DF80910C0125CFF9
S11302A0809103018093170180910701ABDF809156
S11302B00301B9DF80910A01A5CF06DF2C9ADEDFA6
S10B02C0EFDFFDCFF894FFCF3E
S10D02C80706050403020102010009
S9030000FC
