S01B0000536C6176655F436F6D6D756E69636174696F6E2E7372656359
S113000045C0000053C0000051C000004FC00000B4
S11300104DC000004BC0000049C0000047C00000B4
S113002045C0000043C0000041C000003FC00000C4
S11300303DC000003BC0000039C0000037C00000D4
S113004035C0000033C0000031C0000030C00000E3
S11300502DC000002BC0000029C0000027C00000F4
S113006025C0000023C0000021C000001FC0000004
S11300701DC000001BC0000019C0000017C0000014
S113008015C0000013C0000011C0000011241FBEE1
S1130090CFEFD0E4DEBFCDBF21E0A0E0B1E001C0EE
S11300A01D92A130B207E1F71FD022C0A9CF1F9241
S11300B00F920FB60F9211248F938EB58093000187
S11300C08EB58BB98F910F900FBE0F901F9018951E
S11300D08FEF8AB988E484B980EC8CBD7894089554
S11300E08EBD2B9A2B980895F3DF8AEAF9DFFDCFB2
S10700F0F894FFCFAE
S9030000FC
