:1000000045C000008CC0000051C000004FC000007F
:100010004DC000004BC0000049C0000047C00000B8
:1000200045C0000043C0000041C000003FC00000C8
:100030003DC000003BC0000039C0000037C00000D8
:1000400035C0000033C0000031C00000DEC1000038
:100050002DC000002BC0000029C0000027C00000F8
:100060008DC1000023C0000021C000001FC000009F
:100070001DC000001BC0000019C0000017C0000018
:1000800015C0000013C0000011C0000011241FBEE5
:10009000CFEFD0E4DEBFCDBF21E0A0E0B1E001C0F2
:1000A0001D92A532B207E1F7A0D1DFC1A9CF10920E
:1000B00024011092230111B884B1876084B9289873
:1000C00080E280937C008BE880937A00E9E6F0E0A0
:1000D00080818160808380818260808381E08DBBAC
:1000E00084E680931B0180931C0180931D01809303
:1000F0001E0180931F018093200180932101789439
:100100000895ECE7F0E09081987F90839081892BAF
:100110008083EAE7F0E080818064808308951F9205
:100120000F920FB60F9211240BB60F922F933F939D
:100130004F935F936F937F938F939F93AF93BF93EF
:10014000EF93FF93109224011092230181E090E03D
:1001500090931A01809319018091020190910301FB
:1001600001968330910529F0909303018093020159
:1001700006C081E090E0909303018093020180E04B
:1001800090E0BFDFFF91EF91BF91AF919F918F9171
:100190007F916F915F914F913F912F910F900BBE87
:1001A0000F900FBE0F901F901895CF93DF93E2E151
:1001B000F1E0CBE0D1E0ABE1B1E029E131E08191C8
:1001C000499190E0841B91090AF4019695958795D1
:1001D000840F8D93E217F30791F7DF91CF91089584
:1001E00080910201909103018130910551F4E091D9
:1001F0002301F0912401E55FFE4F8091220180836D
:100200000FC0029769F48091230190912401FC01B1
:10021000EE5EFE4F209122012083069709F4C5DF90
:100220008091230190912401019690932401809361
:1002300023018730910549F410921A011092190197
:10024000109224011092230102C0009711F4289803
:1002500028C08130910519F42898289A22C082304C
:10026000910519F42898299A1CC08330910529F426
:10027000289885B1836085B914C08430910519F43C
:1002800028982A9A0EC08530910529F4289885B1BE
:10029000856085B906C0069721F4289885B18660E7
:1002A00085B980912301909124012BCF10920001F8
:1002B000A4E0B1E0EBE1F1E080E090E041E050E06B
:1002C0003D912191231760F4609100019A01082E5D
:1002D00002C0220F331F0A94E2F7262B209300015D
:1002E00001968730910561F70895809123019091DF
:1002F0002401FC01EC5FFE4F209122012083019636
:1003000090932401809323018730910531F4CEDF4F
:10031000109224011092230102C0009711F4289832
:1003200028C08130910519F42898289A22C082307B
:10033000910519F42898299A1CC08330910529F455
:10034000289885B1836085B914C08430910519F46B
:1003500028982A9A0EC08530910529F4289885B1ED
:10036000856085B906C0069721F4289885B1866016
:1003700085B98091230190912401C3CE1F920F92E1
:100380000FB60F9211240BB60F922F933F934F93FA
:100390005F936F937F938F939F93AF93BF93EF93ED
:1003A000FF9380917800809322018091790080935F
:1003B00022018091190190911A01019711F410DF27
:1003C00001C093DFFF91EF91BF91AF919F918F910A
:1003D0007F916F915F914F913F912F910F900BBE45
:1003E0000F900FBE0F901F90189505D060DE80E033
:1003F00090E087DEFFCF88E484B983EC8CBD7894ED
:1004000008958EBD2B9A2B9808951F920F920FB6C8
:100410000F9211240BB60F922F933F934F935F933C
:100420006F937F938F939F93AF93BF93EF93FF93BC
:100430008EB58093010180910101843019F480917F
:100440000001DFDFFF91EF91BF91AF919F918F91FD
:100450007F916F915F914F913F912F910F900BBEC4
:0E0460000F900FBE0F901F901895F894FFCFCD
:00000001FF
