S00C0000524649442E73726563F3
S113000045C0000053C0000051C000004FC00000B4
S11300104DC000004BC0000049C0000047C00000B4
S113002045C0000043C0000041C000003FC00000C4
S11300303DC000003BC0000039C0000037C00000D4
S113004035C0000033C0000031C000002FC00000E4
S113005012C400002BC0000029C0000027C000000B
S113006025C0000023C0000021C000001FC0000004
S11300701DC000001BC0000019C0000017C0000014
S113008015C0000013C0000011C0000011241FBEE1
S1130090CFEFD0E4DEBFCDBF21E0A0E0B1E001C0EE
S11300A01D92A133B207E1F71CD490C4A9CF0F93DA
S11300B01F93CF93DF93FC019081A385B4856111D5
S11300C00EC03C9161E070E0EB0102C0CC0FDD1F7B
S11300D09A95E2F7CE01809583238C930CC03C91D2
S11300E061E070E0EB0102C0CC0FDD1F9A95E2F7EE
S11300F0CE01832B8C939181A585B68541110EC0C9
S11301003C9141E050E0BA0102C0660F771F9A9516
S1130110E2F7CB01809583238C930CC03C9141E0A2
S113012050E0EA0102C0CC0FDD1F9A95E2F7CE0140
S1130130832B8C939381A189B289222374F03C91FF
S113014041E050E0BA0102C0660F771F9A95E2F7CA
S1130150CB01809583238C930CC03C9141E050E00B
S1130160EA0102C0CC0FDD1F9A95E2F7CE01832B82
S11301708C939481A389B48926FD0EC03C9141E0FF
S113018050E0BA0102C0660F771F9A95E2F7CB01DF
S1130190809583238C930CC03C9141E050E0EA01AC
S11301A002C0CC0FDD1F9A95E2F7CE01832B8C930E
S11301B09581A589B68925FD0EC03C9141E050E0AA
S11301C0BA0102C0660F771F9A95E2F7CB018095BA
S11301D083238C930CC03C9141E050E0EA0102C0BF
S11301E0CC0FDD1F9A95E2F7CE01832B8C93968179
S11301F0A789B08D24FD0EC03C9141E050E0BA01C6
S113020002C0660F771F9A95E2F7CB01809583238E
S11302108C930CC03C9141E050E0EA0102C0CC0F49
S1130220DD1F9A95E2F7CE01832B8C9383A1811174
S11302301FC000C0A785B0893C9181E090E0AC016B
S1130240028002C0440F551F0A94E2F7432B4C93DB
S113025000C000C0A785B0893C91028002C0880F0D
S1130260991F0A94E2F7809583238C9300C000C001
S113027083A1813009F07DC09781A18DB28D23FDCA
S11302800EC03C9141E050E0BA0102C0660F771FF6
S11302909A95E2F7CB01809583238C930CC03C9113
S11302A041E050E0EA0102C0CC0FDD1F9A95E2F76D
S11302B0CE01832B8C939085A38DB48D22FD0EC02B
S11302C03C9141E050E0BA0102C0660F771F9A9555
S11302D0E2F7CB01809583238C930CC03C9141E0E1
S11302E050E0EA0102C0CC0FDD1F9A95E2F7CE017F
S11302F0832B8C939185A58DB68D21FD0EC03C91E9
S113030041E050E0BA0102C0660F771F9A95E2F708
S1130310CB01809583238C930CC03C9141E050E049
S1130320EA0102C0CC0FDD1F9A95E2F7CE01832BC0
S11303308C939285A78DB0A120FD0EC04C9121E035
S113034030E0B90102C0660F771F9A95E2F7CB013E
S1130350809584238C9389C04C9121E030E0E9019D
S113036002C0CC0FDD1F9A95E2F7CE01842B8C934B
S11303707CC09381A189B28923FD0EC03C9141E0E8
S113038050E0BA0102C0660F771F9A95E2F7CB01DD
S1130390809583238C930CC03C9141E050E0EA01AA
S11303A002C0CC0FDD1F9A95E2F7CE01832B8C930C
S11303B09481A389B48922FD0EC03C9141E050E0B0
S11303C0BA0102C0660F771F9A95E2F7CB018095B8
S11303D083238C930CC03C9141E050E0EA0102C0BD
S11303E0CC0FDD1F9A95E2F7CE01832B8C93958178
S11303F0A589B68921FD0EC03C9141E050E0BA01C7
S113040002C0660F771F9A95E2F7CB01809583238C
S11304108C930CC03C9141E050E0EA0102C0CC0F47
S1130420DD1F9A95E2F7CE01832B8C939681A789E1
S1130430B08D20FD0EC04C9121E030E0B90102C026
S1130440660F771F9A95E2F7CB01809584238C93EE
S11304500CC04C9121E030E0E90102C0CC0FDD1F5B
S11304609A95E2F7CE01842B8C9300C0A785B089BE
S11304704C9181E090E09C01028002C0220F331F66
S11304800A94E2F7242B2C9300C000C0A785B089FE
S11304902C91028002C0880F991F0A94E2F780957C
S11304A082238C9300C000C00115110549F080E03F
S11304B090E0D5E0DA95F1F7019680179107C9F736
S11304C0DF91CF911F910F9108950F931F9308E629
S11304D016E021E040E060E0EADD1F910F9108950D
S11304E00F931F93E62FF0E0BF01660F771F646040
S11304F0242F262B08E210E040E060E0D8DD1F91B5
S11305000F9108950F931F93E62FF0E0BF01660F3C
S1130510771F660F771F6860440F642B262B08E251
S113052010E040E060E0C3DD1F910F9108950F9348
S11305301F93440F440F440F30E1639FB001112413
S11305406062642B220F220F262B08E210E040E0A9
S113055060E0ADDD1F910F9108950F931F93262F37
S11305600DE210E040E061E0A2DD1F910F910895DB
S11305700F931F93CF93DF93EC01122F8FEF97ED1F
S11305800197F1F700C00000EB85FC85508181E004
S113059090E09C01088002C0220F331F0A94E2F706
S11305A0209525232083ED85FE8550819C010980BB
S11305B002C0220F331F0A94E2F7209525232083DB
S11305C0EF85F88950819C010A8002C0220F331FF5
S11305D00A94E2F7209525232083E989FA8950813A
S11305E09C010B8002C0220F331F0A94E2F720956E
S11305F025232083EB89FC8950819C010C8002C057
S1130600220F331F0A94E2F7209525232083ED89D6
S1130610FE8950819C010D8002C0220F331F0A9471
S1130620E2F7209525232083EF89F88D20810E8021
S113063002C0880F991F0A94E2F780958223808371
S11306408BA18130A9F5E98DFA8D508181E090E08C
S11306509C010F8002C0220F331F0A94E2F72095F9
S113066025232083EB8DFC8D50819C01088402C0DE
S1130670220F331F0A94E2F7209525232083ED8D62
S1130680FE8D50819C01098402C0220F331F0A94FD
S1130690E2F7209525232083EF8DF8A120810A8499
S11306A002C0880F991F0A94E2F780958223808301
S11306B0ED89FE89508181E090E09C010D8002C0AB
S11306C0220F331F0A94E2F7252B2083EF89F88D3C
S11306D050819C010E8002C0220F331F0A94E2F75E
S11306E0252B208300C0EF85F88950819C010A8066
S11306F002C0220F331F0A94E2F7252B208300C087
S113070000C0EF85F88950819C010A8002C0220F45
S1130710331F0A94E2F720952523208300C000C0EC
S1130720EAE0FBE33197F1F700C0EF85F8895081E7
S11307309C010A8002C0220F331F0A94E2F7252B82
S1130740208300C000C0EF85F88950819C010A8095
S113075002C0220F331F0A94E2F720952523208339
S113076000C000C0E0E7F1E03197F1F700C000C03D
S1130770EF85F88950819C010A8002C0220F331F43
S11307800A94E2F7252B208300C000C0EF85F88986
S113079020810A8002C0880F991F0A94E2F780958D
S11307A08223808300C000C08BA181112CC0EF89FB
S11307B0F88D508181E090E09C010E8002C0220FF0
S11307C0331F0A94E2F720952523208300C0EF8588
S11307D0F88950819C010A8002C0220F331F0A94B9
S11307E0E2F7252B208300C000C0EF85F889208123
S11307F00A8002C0880F991F0A94E2F78095822329
S1130800808300C000C0242F462F6BA1CE018FDE51
S113081020E040E060E0CE0175DECE0156DE402FE0
S1130820612FCE015DDEDF91CF911F910F9108956D
S1130830CF93DF93C82FD0E0CF5FDE4F68818DE088
S113084091E08BDE88818A3011F08D3029F46EE5D9
S11308508DE091E082DE04C061E28DE091E07DDE16
S1130860DF91CF9108959091C600E82FF0E0EF5FFB
S1130870FE4F908308951F920F920FB60F9211248A
S11308800BB60F922F933F934F935F936F937F9386
S11308908F939F93AF93BF93EF93FF938091000146
S11308A0E2DF80910001C4DF809100018F5F8C3012
S11308B019F08093000102C010920001FF91EF91A2
S11308C0BF91AF919F918F917F916F915F914F9164
S11308D03F912F910F900BBE0F900FBE0F901F9062
S11308E018958FEF81B980EE8AB985E080930D0168
S11308F0D6E0D0930E0197E090930F0190931001EE
S1130900D09311018093120184E08093130183E05A
S11309108093140182E080931501C1E0C093160115
S1130920109217018BE290E09093190180931801C3
S113093090931B0180931A0190931D0180931C01D5
S113094082E290E090931F0180931E019093210115
S11309508093200190932301809322019093250199
S11309608093240190932701809326019093290179
S11309708093280190932B0180932A0190932D0159
S113098080932C0110922E0180E480932F01C09358
S1130990300100E021E040E061E08DE091E0E8DD3D
S11309A021E041E061E08DE091E0ACDDE1ECF0E0DC
S11309B088E18083D093C200C093C5008FE7809301
S11309C0C4008081806880837894FFCFF894FFCF3F
S9030000FC
