:1000000045C0000060C000005EC000005CC0000091
:100010005AC0000058C0000056C0000054C0000084
:1000200052C0000050C000004EC000004CC0000094
:100030004AC0000048C0000046C0000044C00000A4
:1000400042C0000040C000003EC000003CC00000B4
:1000500004C4000038C0000036C0000034C00000F6
:1000600032C0000030C000002EC000002CC00000D4
:100070002AC0000028C0000026C0000024C00000E4
:1000800022C0000020C000001EC0000011241FBEBE
:10009000CFEFD0E4DEBFCDBF11E0A0E0B1E0E6E3FA
:1000A000FAE000E00BBF02C007900D92AC30B10740
:1000B000D9F721E0ACE0B1E001C01D92A233B20754
:1000C000E1F7ABD4B6C49CCF0F931F93CF93DF93CC
:1000D000FC019081A385B48561110EC03C9161E063
:1000E00070E0EB0102C0CC0FDD1F9A95E2F7CE0164
:1000F000809583238C930CC03C9161E070E0EB0110
:1001000002C0CC0FDD1F9A95E2F7CE01832B8C93B2
:100110009181A585B68541110EC03C9141E050E02A
:10012000BA0102C0660F771F9A95E2F7CB0180955E
:1001300083238C930CC03C9141E050E0EA0102C063
:10014000CC0FDD1F9A95E2F7CE01832B8C93938120
:10015000A189B289222374F03C9141E050E0BA01B8
:1001600002C0660F771F9A95E2F7CB018095832333
:100170008C930CC03C9141E050E0EA0102C0CC0FEE
:10018000DD1F9A95E2F7CE01832B8C939481A3898E
:10019000B48926FD0EC03C9141E050E0BA0102C096
:1001A000660F771F9A95E2F7CB01809583238C9396
:1001B0000CC03C9141E050E0EA0102C0CC0FDD1FD1
:1001C0009A95E2F7CE01832B8C939581A589B68908
:1001D00025FD0EC03C9141E050E0BA0102C0660F1F
:1001E000771F9A95E2F7CB01809583238C930CC0FF
:1001F0003C9141E050E0EA0102C0CC0FDD1F9A952E
:10020000E2F7CE01832B8C939681A789B08D24FDD4
:100210000EC03C9141E050E0BA0102C0660F771F6A
:100220009A95E2F7CB01809583238C930CC03C9187
:1002300041E050E0EA0102C0CC0FDD1F9A95E2F7E1
:10024000CE01832B8C9383A181111FC000C0A78591
:10025000B0893C9181E090E0AC01028002C0440F83
:10026000551F0A94E2F7432B4C9300C000C0A785AA
:10027000B0893C91028002C0880F991F0A94E2F76E
:10028000809583238C9300C000C083A1813009F046
:100290007DC09781A18DB28D23FD0EC03C9141E0C0
:1002A00050E0BA0102C0660F771F9A95E2F7CB01C2
:1002B000809583238C930CC03C9141E050E0EA018F
:1002C00002C0CC0FDD1F9A95E2F7CE01832B8C93F1
:1002D0009085A38DB48D22FD0EC03C9141E050E08D
:1002E000BA0102C0660F771F9A95E2F7CB0180959D
:1002F00083238C930CC03C9141E050E0EA0102C0A2
:10030000CC0FDD1F9A95E2F7CE01832B8C9391855C
:10031000A58DB68D21FD0EC03C9141E050E0BA01A3
:1003200002C0660F771F9A95E2F7CB018095832371
:100330008C930CC03C9141E050E0EA0102C0CC0F2C
:10034000DD1F9A95E2F7CE01832B8C939285A78DC2
:10035000B0A120FD0EC04C9121E030E0B90102C0F7
:10036000660F771F9A95E2F7CB01809584238C93D3
:1003700089C04C9121E030E0E90102C0CC0FDD1FC3
:100380009A95E2F7CE01842B8C937CC09381A1894E
:10039000B28923FD0EC03C9141E050E0BA0102C099
:1003A000660F771F9A95E2F7CB01809583238C9394
:1003B0000CC03C9141E050E0EA0102C0CC0FDD1FCF
:1003C0009A95E2F7CE01832B8C939481A389B4890B
:1003D00022FD0EC03C9141E050E0BA0102C0660F20
:1003E000771F9A95E2F7CB01809583238C930CC0FD
:1003F0003C9141E050E0EA0102C0CC0FDD1F9A952C
:10040000E2F7CE01832B8C939581A589B68921FDD6
:100410000EC03C9141E050E0BA0102C0660F771F68
:100420009A95E2F7CB01809583238C930CC03C9185
:1004300041E050E0EA0102C0CC0FDD1F9A95E2F7DF
:10044000CE01832B8C939681A789B08D20FD0EC0A1
:100450004C9121E030E0B90102C0660F771F9A95F8
:10046000E2F7CB01809584238C930CC04C9121E062
:1004700030E0E90102C0CC0FDD1F9A95E2F7CE0112
:10048000842B8C9300C0A785B0894C9181E090E0CB
:100490009C01028002C0220F331F0A94E2F7242B32
:1004A0002C9300C000C0A785B0892C91028002C0A7
:1004B000880F991F0A94E2F7809582238C9300C0DD
:1004C00000C00115110549F080E090E0D5E0DA9513
:1004D000F1F7019680179107C9F7DF91CF911F912E
:1004E0000F9108950F931F9308E616E021E040E076
:1004F00060E0EADD1F910F9108950F931F93E62F9F
:10050000F0E0BF01660F771F6460242F262B08E2FE
:1005100010E040E060E0D8DD1F910F9108950F9347
:100520001F93E62FF0E0BF01660F771F660F771F5E
:100530006860440F642B262B08E210E040E060E086
:10054000C3DD1F910F9108950F931F93440F440F24
:10055000440F30E1639FB00111246062642B220FCD
:10056000220F262B08E210E040E060E0ADDD1F9195
:100570000F9108950F931F93262F0DE210E040E096
:1005800061E0A2DD1F910F9108950F931F93CF9308
:10059000DF93EC01122F8FEF97ED0197F1F700C079
:1005A0000000EB85FC85508181E090E09C01088093
:1005B00002C0220F331F0A94E2F7209525232083DF
:1005C000ED85FE8550819C01098002C0220F331FFA
:1005D0000A94E2F7209525232083EF85F88950813E
:1005E0009C010A8002C0220F331F0A94E2F7209573
:1005F00025232083E989FA8950819C010B8002C060
:10060000220F331F0A94E2F7209525232083EB89DC
:10061000FC8950819C010C8002C0220F331F0A9478
:10062000E2F7209525232083ED89FE8950819C01E6
:100630000D8002C0220F331F0A94E2F72095252374
:100640002083EF89F88D20810E8002C0880F991FCA
:100650000A94E2F78095822380838BA18130A9F5EB
:10066000E98DFA8D508181E090E09C010F8002C0FD
:10067000220F331F0A94E2F7209525232083EB8D68
:10068000FC8D50819C01088402C0220F331F0A9404
:10069000E2F7209525232083ED8DFE8D50819C016E
:1006A000098402C0220F331F0A94E2F72095252304
:1006B0002083EF8DF8A120810A8402C0880F991F42
:1006C0000A94E2F7809582238083ED89FE89508128
:1006D00081E090E09C010D8002C0220F331F0A943C
:1006E000E2F7252B2083EF89F88D50819C010E8045
:1006F00002C0220F331F0A94E2F7252B208300C08B
:10070000EF85F88950819C010A8002C0220F331FB7
:100710000A94E2F7252B208300C000C0EF85F889FA
:1007200050819C010A8002C0220F331F0A94E2F715
:1007300020952523208300C000C0EAE0FBE3319729
:10074000F1F700C0EF85F88950819C010A8002C052
:10075000220F331F0A94E2F7252B208300C000C02C
:10076000EF85F88950819C010A8002C0220F331F57
:100770000A94E2F720952523208300C000C0E0E71B
:10078000F1E03197F1F700C000C0EF85F8895081A2
:100790009C010A8002C0220F331F0A94E2F7252B26
:1007A000208300C000C0EF85F88920810A8002C044
:1007B000880F991F0A94E2F780958223808300C0F6
:1007C00000C08BA181112CC0EF89F88D508181E090
:1007D00090E09C010E8002C0220F331F0A94E2F7C2
:1007E00020952523208300C0EF85F88950819C0146
:1007F0000A8002C0220F331F0A94E2F7252B2083C0
:1008000000C000C0EF85F88920810A8002C0880FEF
:10081000991F0A94E2F780958223808300C000C06C
:10082000242F462F6BA1CE018FDE20E040E060E058
:10083000CE0175DECE0156DE402F612FCE015DDE8A
:10084000DF91CF911F910F9108958091C600E62FFF
:10085000F0E0E050FF4F808308951F920F920FB693
:100860000F9211240BB60F922F933F934F935F93E8
:100870006F937F938F939F93AF93BF93EF93FF9368
:1008800060910D0180910C01E0DF80910D018F5F7F
:100890008C3019F080930D0107C010920D018091EA
:1008A0000C018F5F80930C01FF91EF91BF91AF918D
:1008B0009F918F917F916F915F914F913F912F9178
:1008C0000F900BBE0F900FBE0F901F9018950F93B7
:1008D0001F93CF93DF938EE091E004DE62E58EE01C
:1008E00091E048DE66E48EE091E044DE69E48EE06B
:1008F00091E040DE64E48EE091E03CDE6AE38EE06D
:1009000091E038DEC1E0D1E00BE011E069918EE0CA
:1009100091E030DEC017D107C9F7DF91CF911F9169
:100920000F9108950F93CF93DF938FEF81B980EEEE
:100930008AB985E080930E01D6E0D0930F0197E04D
:100940009093100190931101D093120180931301A1
:1009500084E08093140183E08093150182E080930A
:100960001601C1E0C0931701109218018BE290E0CC
:1009700090931A018093190190931C0180931B019D
:1009800090931E0180931D0182E290E090932001DC
:1009900080931F0190932201809321019093240161
:1009A0008093230190932601809325019093280141
:1009B0008093270190932A018093290190932C0121
:1009C00080932B0190932E0180932D0110922F0183
:1009D00080E480933001C093310100E021E040E0E9
:1009E00061E08EE091E0D1DD20E040E061E08EE06A
:1009F00091E095DDE1ECF0E088E18083D093C200E6
:100A0000C093C5008FE78093C40080818068808395
:100A10007894DF91CF910F91089584DF58DF2FEF05
:100A20008FE79DE0215080409040E1F700C000003A
:060A3000F5CFF894FFCFA2
:0C0A36002D2D2D2D2D2D2D2D2D2D2D2D98
:00000001FF
