S00D0000536572766F2E7372656308
S113000045C000004BC0000049C0000047C00000CC
S113001045C0000043C0000041C000003FC00000D4
S11300203DC000003BC0000039C0000037C00000E4
S113003035C0000033C0000031C000002FC00000F4
S11300402DC000002BC0000029C0000027C0000004
S113005025C0000023C0000021C000001FC0000014
S11300601DC000001BC0000019C0000017C0000024
S113007015C0000013C0000011C000000FC0000034
S11300800DC000000BC0000009C0000011241FBEF9
S1130090CFEFD0E4DEBFCDBF4ED05AC0B1CF84E0A5
S11300A08AB91092C5001092C40088E18093C100FF
S11300B086E08093C20008955A9AE0ECF0E09081C3
S11300C095FFFDCF8093C6000895EF920F93CF93D1
S11300D0DF93D42FC22F8FEFEFDF8FEFEDDF8EEFA3
S11300E0EBDF8EE0E9DF83E8E7DF8EE1E5DF84E044
S11300F0E3DF802FE1DF82EDDFDF80E0DDDF8D2FC6
S1130100DBDF8C2FD9DF8E2DD7DF8AE2D5DF83E0CA
S1130110D3DF8D2FD1DF8C2FCFDFDD0FD055DC0F58
S1130120CD0F0C0F802F8E0D8095C6DFDF91CF9100
S11301300F91EF900895B3DF0F2EF3E0EF2EF12C23
S1130140F02D02E020E040E461E08FEFBEDFFFCF5E
S1070150F894FFCF4D
S9030000FC
